:100000004024FE1FED630000855E0000E9630000F0
:10001000E9630000E9630000E963000000000000FC
:10002000000000000000000000000000E963000084
:10003000E96300000000000049850000F185000030
:10004000B1490000914A00000D4B00002D16000040
:100050009119000071170000FFFFFFFFFFFFFFFF76
:10006000FFFFFFFFFFFFFFFFFFFFFFFFFFFFFFFFA0
:10007000FFFFFFFFFFFFFFFFFFFFFFFFFFFFFFFF90
:10008000FFFFFFFFFFFFFFFFFFFFFFFFFFFFFFFF80
:10009000FFFFFFFFFFFFFFFFFFFFFFFFFFFFFFFF70
:10040000FFFFFFFFFFFDFFFFFCFFFFFFFFFFFFFF01
:10041000FCFFFFFFFFFFFFFFFCFFFF00FFFFFF00F0
:10042000FCFF0F20FFFF0F20FCFF7F40FFFF7F40FE
:10043000FCFF0D40FFFF0D40FFFFFFFFFFFFFFFF31
:10044000FFFFFFFFFFFFFFFFFFFFFFFFFFFFFFFFBC
:10045000FFFFFFFFFFFFFFFFFFFFFFFFFFFFFFFFAC
:10046000FFFFFFFFFFFFFFFFFFFFFFFFFFFFFFFF9C
:10047000FFFFFFFFFFFFFFFFFFFFFFFFFFFFFFFF8C
:10048000FFFFFFFFFFFFFFFFFFFFFFFFFFFFFFFF7C
:10049000FFFFFFFFFFFFFFFFFFFFFFFFFFFFFFFF6C
:1004A000FFFFFFFFFFFFFFFFFFFFFFFFFFFFFFFF5C
:1004B000FFFFFFFFFFFFFFFFFFFFFFFFFFFFFFFF4C
:1004C000FFFFFFFFFFFFFFFFFFFFFFFFFFFFFFFF3C
:1004D000FFFFFFFFFFFFFFFFFFFFFFFFFFFFFFFF2C
:1004E000FFFFFFFFFFFFFFFFFFFFFFFFFFFFFFFF1C
:1004F000FFFFFFFFFFFFFFFFFFFFFFFFFFFFFFFF0C
:10050000C806FE1F8A003000CC06FE1F8D00301882
:10051000D006FE1F8E0030200408FE1F7401141048
:100520000808FE1F760114200C08FE1F7501142810
:1005300020000000200001002F0000002F0001001B
:100540000C0001001100000030000000300001002C
:100550002400000024000100240002002400030005
:100560002400040024000500130000001700000010
:10057000230000002100000021000100070000000E
:100580000700010007000200070003000700040045
:100590000700050007000600070007001200000022
:1005A00044000000080000000B00000041000000B3
:1005B0004000000040000100040000004300000073
:1005C0002B0000002B000A002B000B002B000C005E
:1005D0002B000D002B0001002B0002002B0003005C
:1005E0002B0004002B0005002B0006002B00070049
:1005F0002B0008002B0009000600000006000A007E
:1006000006000B0006000C0006000D0006000E00A0
:1006100006000F00060001000600020006000300AD
:10062000060004000600050006000600060007009C
:100630000600080006000900150000001500010072
:1006400015000200310000002A00000045000000F3
:10065000100000000301000003000000030001007F
:100660000F0000000D0000002D00000042000000FF
:100670002C0000002C0001002C0002002C000300C4
:1006800032000000280000001800000014000000E4
:100690001400010014000200140003001400040000
:1006A00014000500140006001400070014000800E0
:1006B000140009003400000034000100160000009E
:1006C0001600010035000000360000003600010071
:1006D0002200000033000000330100002900000068
:1006E00010B5054C237833B9044B13B10448AFF36C
:1006F00000800123237010BD3C04FE1F0000000099
:1007000054AF000008B5034B1BB103490348AFF3D6
:10071000008008BD000000004004FE1F54AF000030
:1007200020B14FF002230360002070470120704782
:10073000A8B110B40B4B846A9C4208D190F8553094
:100740004BB1827201815DF8044B00207047072095
:100750005DF8044B704708205DF8044B704701209A
:10076000704700BF4373738330B5456B83B000237C
:1007700004468DF806302DB1AB6828689B69694640
:10078000984780B1246B64B1A36820689B6969466F
:10079000984730B99DF806301BB1A36820685B69A3
:1007A000984703B030BD9DF80630002BEAD0AB6807
:1007B00028685B699847E5E7416BA9B190F851302B
:1007C00070B5044603F0FF056BB98A68B0F8443091
:1007D00056680868E16B2A46B047226CC4E911529A
:1007E000012384F8573070BD704700BF2DE9F04FEA
:1007F00095B0002800F028820E46002900F02482DF
:100800004B68954A9342054603D0944A934240F080
:100810001B823278DFF850A2ADF822200023142288
:10082000CDE90B33CDE90D33ADF82020DAF80C30EB
:100830000BA908A898470446002840F0068208A89B
:1008400005F0D6FC0446002840F0FF810B9F0F9076
:10085000DAF81080EF620FAA022108A8C047044608
:10086000002840F0F6819DF83C3085F838300FAA1A
:10087000052108A8C0470446002840F0EA819DF8F9
:100880003C3085F839300FAA042108A8C047044637
:10089000002840F0DE819DF83C3085F83A3095F92B
:1008A0003830B27B002BC0F2078303F160431201A2
:1008B00003F56143D2B283F80023694B95F93810F0
:1008C000186850F831301D6095F93930F27B002BF3
:1008D000C0F2028303F16043120103F56143D2B217
:1008E00083F8002395F9393050F833301D6095F9BD
:1008F0003A30327C002BC0F2E68203F160431201F1
:1009000003F56143D2B283F8002395F93A3050F8E9
:10091000333000291D600DDB4B0952482033012282
:1009200001F01F0102FA01F140F82310BFF34F8FCD
:10093000BFF36F8FBB78DBB28DF81930BB78DBB2B9
:100940008DF81930BB78DBB28DF819309DF819306D
:10095000BB786FF38613BB7095F9380005F01CFC6B
:1009600095F93830002B09DB5A093E4803F01F0384
:100970006032012101FA03F340F8223095F9390081
:1009800000280FDB430937492033012200F01F0004
:1009900002FA00F041F82300BFF34F8FBFF36F8FCF
:1009A00095F93900BB78DBB28DF81A30BB78DBB231
:1009B0008DF81A30BB78DBB28DF81A309DF81A30FA
:1009C000BB786FF3C713BB7005F0E6FB95F93930C0
:1009D000002B09DB5A09234803F01F036032012171
:1009E00001FA03F340F8223095F93A0000280FDBB2
:1009F00043091C492033012200F01F0002FA00F0D5
:100A000041F82300BFF34F8FBFF36F8F95F93A0082
:100A1000BB78DBB28DF81B30BB78DBB28DF81B30B6
:100A2000BB78DBB28DF81B309DF81B30BB786FF3C1
:100A30008203BB7005F0B0FB95F93A30002B15DB53
:100A40005A09084803F01F036032012101FA03F339
:100A500040F822300AE000BFA0860100801A06009C
:100A6000C4A4000000E100E0BCA9000008A8B04652
:100A700005F016FBB8E80F00AE46EF6AAEE80F00CF
:100A8000B8E80F00AEE80F0098E803008EE8030016
:100A90004FF0000C4FF0FF094FF600034FF0F20B40
:100AA0006A6A87F800C087F802C087F804C087F830
:100AB00006B087F8019087F8129087F807C087F88A
:100AC00008C087F809C087F80AC087F80BC087F804
:100AD0000CC087F80DC087F80CC0BB824FF04003F4
:100AE000A7F81AC0FB744FF003033B7787F804C0E4
:100AF00087F802C087F806C087F800C0BB8A6CF38D
:100B00000003BB82FB7A43F03003FB72FB7A43F0B5
:100B1000C003FB72FB7AC3F301138DF81F30FB7A1D
:100B2000C3F381138DF81F30FB7AC3F301138DF8E3
:100B30001F30FB7AC3F381138DF81F309DF81F30EF
:100B40003B786CF3C7133B70BB786CF30103BB704D
:100B5000BB7943F00803BB71BB796CF38203BB71B3
:100B6000BB796CF30003BB7122B11278FB7962F39D
:100B70008203FB71AA896B6801924FF0000807A8F5
:100B80000393CDF828808DF81C8005F03BF9334B9A
:100B90009DF81C009B6902930AA99847019A002AB4
:100BA00000F07E8143462E48072107F0A3FE03464E
:100BB0000A46DFF8B4B0CDE904744FF00008019C98
:100BC00001954FF02009029D02961F465E4693460E
:100BD000002309A80F938DF824304FEA59190A9B76
:100BE000B3FBF9F905F00EF90FA99DF82400A84709
:100BF0000F9B1C4A4FEA4801CB40B2FBF3F3B4FB16
:100C0000F3F304B101334F457BF1000211D31F2BE5
:100C10000FD836F806CC0A98039A00F1FF390CFB7E
:100C200002F18944B9FBF1F909F1FF3EBEF1FE0F73
:100C30001CD908F10108B8F1040F06F1060600F00E
:100C4000338136F8069CC3E70124204615B0BDE881
:100C5000F08F08A805F0FAFAF7E700BF64A30000D8
:100C60000076BE3700CA9A3BCEA200004A4602FB7D
:100C70000CFCF1468646E645DDE90156049F059CDD
:100C80005FFA89F0C0F010817870387868F301005D
:100C90003870F87940070CD501FB02F21202B2FB62
:100CA000FEFEAEF18002802A9CBF5FFA8EFE87F8BE
:100CB00012E07A7A63F3C7027A72FB79726943F0C1
:100CC0002003FB7101233B727B7A43F001037B72AB
:100CD000BB7A43F00203BB72BB7A43F02003BB72C2
:100CE000BB7A4FF0000843F00103BB7287F80D8018
:100CF000BB7843F03003BB70FB7A43F03003FB72E8
:100D0000FB7A43F0C003FB72FB7AC3F301138DF847
:100D10001C30FB7AC3F381138DF81C30FB7AC3F3CC
:100D200001138DF81C30FB7AC3F381138DF81C304E
:100D30009DF81C30B3696B632A63EF6A002B4BD0BC
:100D40009A683178ADF82A101421CDF82480ADF8D6
:100D50002810002A00F0C9801A68002A00F0C58017
:100D60005B68002B00F0C1801A68002A00F0BD808B
:100D700095F93810213100F0B8809C46538823F053
:100D80002C039B059B0D43F400635380FB1C936075
:100D9000DAF810300193BCE80F000DF13C0EAEE81C
:100DA0000F00DCF80030CEF8003009AA019B0221C8
:100DB0000AA89847B369BDF82620ADF840209A6884
:100DC00018688DF842801368CDF844800FA99847C1
:100DD000002840F095807269002A4ED093683178DF
:100DE000ADF82A104FF000081421CDF82480ADF89A
:100DF0002810002B7BD01368002B78D05268002A73
:100E000075D01368002B72D095F9391021316ED04E
:100E10009446DAF810200192DA7802F03302DA70A0
:100E20009A7868F383029A705A8822F4405222F02A
:100E300020025A800337344A5A609F60BCE80F0092
:100E40000DF13C0EAEE80F00DCF80030CEF80030BB
:100E500009AA019B05210AA898477369BDF82620B5
:100E6000ADF840209A6818688DF842801368CDF874
:100E700044800FA99847002844D10023234AEB63FC
:100E8000012185F855102B6485F851306B6485F885
:100E90005230AB6485F85330AA6285F85430D4E6FA
:100EA0004FF0FF331A4684E6112408A805F0CEF867
:100EB00008A805F0CBF9C8E6154903F00F031201A5
:100EC000D2B2CA54F9E4DFF848C003F00F031201AC
:100ED000D2B20CF8032018E5DFF834C003F00F039A
:100EE0001201D2B20CF80320FCE40124DDE7012456
:100EF000B369002BD9D09A681868D3699847D4E7AA
:100F00000446D2E70446F3E7A8A2000043737383C4
:100F100014ED00E010B490F93830C26A002B83B0B1
:100F20000EDB5909464C20314FF0010C03F01F0332
:100F30000CFA03F344F82130BFF34F8FBFF36F8FE8
:100F40009378DBB28DF805309378DBB28DF80530FD
:100F50009378DBB28DF805309DF8053093786FF308
:100F60008613937090F93930002B0EDB5909344CFD
:100F700020314FF0010C03F01F030CFA03F344F887
:100F80002130BFF34F8FBFF36F8F9378DBB28DF8B3
:100F900004309378DBB28DF804309378DBB28DF8AF
:100FA00004309DF8043093786FF3C713937090F971
:100FB0003A30002B0DDB5909214C0120203103F080
:100FC0001F0300FA03F344F82130BFF34F8FBFF340
:100FD0006F8F9378DBB28DF803309378DBB28DF8A6
:100FE00003309378DBB28DF803309DF803309378AB
:100FF0006FF382039370D37AC3F30113022B04BF00
:10100000F023D37254214FF41663D172ADF8063039
:10101000D37A590709D40DE0BDF80630013B1BB265
:10102000ADF80630D37A5B0704D5BDF806301BB2A5
:10103000002BF1DCF023D37203B05DF8044B704752
:1010400000E100E070B5002380F85330044680F8DA
:10105000563080F8583080F8573090F8512094F886
:101060004E10006CE56A606484B084F85030A3646C
:1010700084F84F1012B1012384F85630666B0023B8
:1010800084F85530002E00F09B80B26830688DF8EF
:101090000E3002A9936998479DF80E3013B10820CD
:1010A00004B070BDAA78736802F0CF021B68AA7002
:1010B00094F8512002F0FF01002A40F0D180E81C92
:1010C0009860588843F2F332024042F400625A803A
:1010D000AB7A61F30003AB72AB7843F03003AB70D3
:1010E000AB7A13F0010F94F9383040F09680002B62
:1010F00008DB68495809012203F01F0302FA03F3D1
:1011000041F82030AB78DBB28DF80530AB78DBB23C
:101110008DF80530AB78DBB28DF805309DF80530E1
:10112000AB7843F04003AB7094F93930002B08DB07
:1011300058495809012203F01F0302FA03F341F84A
:101140002030AB78DBB28DF80830AB78DBB28DF8AD
:101150000830AB78DBB28DF808309DF80830AB78FA
:1011600043F08003AB7094F93A30002B08DB494917
:101170005809012203F01F0302FA03F341F820305B
:10118000AB78DBB28DF80730AB78DBB28DF8073087
:10119000AB78DBB28DF807309DF80730AB7843F0C1
:1011A0000403AB70AB7A43F02003AB7294F8543075
:1011B000DBB95123EB72E3695BB1002004B070BD71
:1011C00094F85430002B8BD1AB7843F03003AB70E4
:1011D00086E794F85530002BFBD094F85330002B61
:1011E0000CBF0020122004B070BD94F84E300022D5
:1011F000012B84F8542047D094F84D602B79DB09FB
:10120000FCD0EE7094F84F2094F85030013A01333E
:1012100084F84F2084F85030CDE7002B0DDB5A09BD
:101220001C482032012103F01F0301FA03F340F8A8
:101230002230BFF34F8FBFF36F8FAB78DBB28DF8E7
:101240000630AB78DBB28DF80630AB78DBB28DF8C8
:1012500006309DF80630AB786FF38613AB7063E70A
:101260006A1D5A60DA78997802F03302DA70AA7A45
:10127000022042F0010260F383019970AA72AB78F8
:1012800043F03003AB702BE7204694F84C60FFF737
:1012900093FAB3E700E100E0002842D0F0B50E4633
:1012A00085B0002938D0002A36D0816A1D46264BE9
:1012B0009942044637D190F8553083B3036B6BB134
:1012C000436901929F681868BB690021CDE902114A
:1012D00002A99847DDE901239A4232D2A37A84F821
:1012E000525001218B42C4E90F62626484F85110AC
:1012F00022891BD0D30923F00103032163F00F03DC
:1013000084F84D3084F84C2084F84E10204605B007
:10131000BDE8F040FFF796BE012005B0F0BD082003
:10132000FBE701207047072005B0F0BD5200002107
:1013300042F0010284F84D1084F84C2084F84E30BD
:10134000E4E71720E9E700BF4373738300284ED01A
:10135000F0B50F4683B000294BD016461D46826A71
:101360002A4B9A4204463AD190F85530002B39D096
:10137000436BB3B1036BA3B183690022CDE90022B3
:101380009A681868936969469847009B9E422CD2D8
:1013900063699A681868936969469847009B9E42FA
:1013A00023D2A37A84F852500022012BC4E90F768D
:1013B000666484F851201FD0228984F84C20D30918
:1013C00003F00E03022163F00F0384F84D3084F81C
:1013D0004E10204603B0BDE8F040FFF733BE0720B3
:1013E00003B0F0BD082003B0F0BD1720F8E70120DE
:1013F0007047012003B0F0BD218984F84D204A00D8
:1014000084F84C2084F84E30E3E700BF43737383C5
:10141000002833D010B51A4B826A9A4284B0044631
:1014200002D0072004B010BD406C18B994F85430B5
:10143000002BF7D02046FFF797F92046FFF76AFD0B
:10144000E2694AB1D4E91031206A5B1A0121CDE981
:101450000103039101A8904794F84E00216C84F891
:10146000500001220023122084F85520636484F880
:101470005320A16484F8543004B010BD012070479B
:1014800043737383F0B585B0002800F0C580654BC9
:10149000826A9A42044603D00725284605B0F0BD6B
:1014A000456C002D40F0948090F85430002B40F0B3
:1014B0008F8001AE94F938200023002AA362E36AEA
:1014C0000DDB5109584F2031012002F01F0200FAB4
:1014D00002F247F82120BFF34F8FBFF36F8F9A7846
:1014E000D2B28DF803209A78D2B28DF803209A7880
:1014F000D2B28DF803209DF803209A786FF38612FC
:101500009A7094F93920002A0DDB5109464F203199
:10151000012002F01F0200FA02F247F82120BFF377
:101520004F8FBFF36F8F9A78D2B28DF802209A78DE
:10153000D2B28DF802209A78D2B28DF802209DF8AE
:1015400002209A786FF3C7129A7094F93A20002A11
:101550000DDB5109344F2031012002F01F0200FA47
:1015600002F247F82120BFF34F8FBFF36F8F9A78B5
:10157000D2B28DF801209A78D2B28DF801209A78F3
:10158000D2B28DF801209DF801209A786FF3820283
:101590009A70F022DA722278ADF8062014233046D1
:1015A000ADF8043004F052FD304604F04FFEA3695C
:1015B0001BB19A681868D36998476369002B3FF498
:1015C0006CAF9A681868D3699847284605B0F0BD93
:1015D0002046FFF7C9F82046FFF79CFCE269FAB104
:1015E000D4E91031206A5B1A01AE0121CDE9010373
:1015F000039130469047012284F85520002384F857
:10160000532094F84E10226C636484F8501084F8D0
:101610005430A26412254DE70125284605B0F0BDDF
:1016200001AEE8E74373738300E100E030B583B0B7
:10163000EFF3058006F05CFBEFF30383A3F11000EA
:1016400040B2019304F0A8FDEFF3038246490192F2
:10165000A2F1100309685BB251F833301D68EC6ADF
:10166000A37AD807C3F3000226D495F84E1095F854
:101670005030994252D195F85730002B68D16B6C9D
:101680009BB92379590707D44FF4966301E0013BD6
:1016900002D022795207FAD595F85230002B60D04B
:1016A00052220123E27285F85430EFF3058003B033
:1016B000BDE8304006F01ABB95F85730002BF4D047
:1016C00095F938300022934285F857200DDB5A09EE
:1016D00026480121203203F01F0301FA03F340F8EA
:1016E0002230BFF34F8FBFF36F8FA378DBB28DF83B
:1016F0000430A378DBB28DF80430A378DBB28DF828
:1017000004309DF80430A3786FF38613A370EFF3D1
:10171000058003B0BDE8304006F0E8BA2846FFF780
:101720004BF895F84C202379DB09FCD0E27095F852
:101730004F2095F85030013A013385F84F2085F855
:101740005030EFF3058003B0BDE8304006F0CEBA6C
:1017500085F85720EFF3058003B0BDE8304006F070
:10176000C5BA5423E372A0E7C4A4000000E100E07E
:10177000F0B583B0EFF3058006F0BAFAEFF3038318
:10178000A3F1100040B2019304F006FDEFF30382D1
:101790007D490192A2F1100309685BB251F8333020
:1017A0001D68EC6AA37ADF0704D5237BD807C3F34F
:1017B00000011BD523795E0707D44FF4966301E03F
:1017C000013B02D022795207FAD595F851305BBB24
:1017D000002101225423696485F85320E372EFF35A
:1017E000058003B0BDE8F04006F080BA95F85020BF
:1017F00095F84E30934239D095F851308BBB95F81F
:101800004C102379DB09FCD0E17095F84F300132A0
:10181000013B85F84F3085F85020EFF3058003B089
:10182000BDE8F04006F062BA95F85630002BCFD1F3
:10183000AB6CEA6B6179D154D5E9112395F852105C
:10184000013A0133C5E91123F1B152220123E272B9
:1018500085F85430EFF3058003B0BDE8F04006F0A2
:1018600045BA022ACBD15223E372B8E795F8583033
:1018700003F0FF0213B185F85810B0E76B6C63B941
:1018800095F85230002BE0D15423E372EFF305803A
:1018900003B0BDE8F04006F029BA95F8511059B9E7
:1018A000A96CEA6B013B525C0131C5E91131237926
:1018B000DB09FCD0E27092E795F8561069B9AB6C81
:1018C000EA6B6179D154D5E91132013B0132012B28
:1018D000C5E9113215D0FF22E9E72E6B85F85620B5
:1018E0003EB1696B29B195F8512012B12A6C022AD8
:1018F0000DD8012B05D0A37A6FF34513FF22A372F5
:10190000D5E7A37A43F02003FF22A372CFE795F92E
:101910003830002B09DB1D485F09012203F01F034B
:1019200002FA03F340F827302A6C0868931EA27865
:10193000D2B28DF80420A278D2B28DF80420A27819
:10194000D2B28DF804209DF80420A27842F0400223
:10195000A2708A689BB25768EA6B0021B847B268E8
:101960002B6C576830680022023B11469BB2B84787
:101970002B6C01220221023B85F85720C5E9111387
:1019800085F85820B7E700BFC4A4000000E100E0DC
:1019900030B585B0EFF3058006F0AAF9EFF30382C6
:1019A00055490192A2F1100309685BB251F8333036
:1019B0001D68EC6AE37A6FF3C303E372E37AC3F35F
:1019C000C0038DF80330E37AC3F3C0038DF803300E
:1019D000E37AC3F3C0038DF803309DF8033095F824
:1019E0005330002B54D195F84E3095F85020934247
:1019F0003AD16B6CEBB995F8511095F85420002949
:101A000014BF02210321002A5FD0E372EB69002B8F
:101A10004CD00022286AADF80D208DF80F202A6CDA
:101A20008DF80C10CDE9010201A89847012385F833
:101A30005530EFF30383A3F1100040B2019304F09B
:101A4000ABFBEFF30382A2F110035BB22B490192CF
:101A5000C03351F823300193019BEFF3058005B0AB
:101A6000BDE8304006F042B922BB012B34D095F8D6
:101A70004D100023E3722379DB09FCD0E17095F867
:101A80004F300132013B85F84F3085F85020D0E7C8
:101A9000EA69F023E3724AB1D5E91031286A5B1A8A
:101AA0000121CDE90103039101A89047012385F8A5
:101AB0005530BEE795F85130002BBAD0022AB8D184
:101AC00095F84D1041F00101D3E7F023E372A378BC
:101AD00003F0CF03A37099E72846FEF76DFE95F853
:101AE0004E30012B18BF95F85020C0D195F84C10FE
:101AF00095F85020BDE700BFC4A40000006000407E
:101B00000B4B10B41C68B4EB102F03D803205DF806
:101B1000044B704749B15B685DF8044B020A5201FF
:101B200004330020D3580B8070470120EFE700BF3B
:101B3000F803FE1FD2B10E4B10B41C68B4EB102F8B
:101B40004FEA102C03D803205DF8044B70475B6804
:101B50005DF8044B22EA01004FEA4C1C08330A40AE
:101B600042EA00424CF803200020704703207047EF
:101B7000F803FE1F12B3124B10B41C68B4EB102F05
:101B80004FEA102C03D803205DF8044B70475C68C3
:101B90004FEA4C1C02EA010354F80C00034361EACB
:101BA00002019AB2114054F80C20120C1204114395
:101BB00044F80C1000205DF8044B70470320704778
:101BC000F803FE1F0B4B10B41C68B4EB102F03D8A6
:101BD00003205DF8044B704751B15B685DF8044B1E
:101BE000020A520104330020D3581B0C0B807047AB
:101BF0000120EEE7F803FE1F10B40D4C2368B3EB91
:101C0000102F03D803205DF8044B7047002AF9D049
:101C100063685DF8044B4FEA102C083322EA010098
:101C200003EB4C130A4042EA00425A60002070471E
:101C3000F803FE1F20B14FF002230360002070471D
:101C40000120704738B50488002C4DD0436800212E
:101C5000043303EBC40040F202450C4640F2034C4F
:101C600040F2044E0FE0624530D153F8042C02F0EC
:101C7000B852B2F1807F14BF41F0020144F0020477
:101C80000833834211D01A88AA42ECD153F8042CAD
:101C900002F0B852B2F1807F03F1080314BF41F0A3
:101CA000010144F001048342EDD1C943CDB20120CA
:101CB00004F04AFB0D4B93F8BB2414432C4083F8EB
:101CC000BB440120BDE8384004F00EBB7245D7D1BB
:101CD00053F8042C02F0B852B2F1807F0CBF44F0EC
:101CE000040441F00401CBE7FF25E0E700E00140F8
:101CF000012958D82E4B1A68B2EB102F70B44FEA56
:101D0000102409D99A68C0B252F8245000F1100684
:101D10000122B2402A4202D1032070BC704700EB7E
:101D20000410D3E9035454F8203000293DD043F087
:101D30000401204E0E40EFF3108C012383F3108832
:101D40001D4B1A8892B212B9EA704022EA701A88C2
:101D5000013292B21A808CF3108811F4803F54F84B
:101D6000202007D022F4803244F82020134A0A4071
:101D700044F8202044F82060EFF31081012282F320
:101D800010881A8892B21AB11A88013A92B21A804F
:101D90001B889BB213B98022EB70EA7081F3108824
:101DA000002070BC70470320704723F00401C0E797
:101DB000F803FE1FD5FC011F5804FE1FD5FC001FB1
:101DC00070B582B00446002501A80E468DF8045077
:101DD00004F03AF89DF80430DB0713D5202C0ED818
:101DE000012E0CD8094BDB681A780CBF22EA0404D8
:101DF0001443284604F030041C7002B070BD032068
:101E000002B070BD062002B070BD00BFF803FE1F17
:101E1000002861D043682DE9F0470646002B58D0D2
:101E2000FFF710FF3388002B50D02C4F2C4A4FF077
:101E3000000C4FF0010E4FF0400A4FF0800971681E
:101E4000F8681FFA8CF401EBC40351F834509B88F6
:101E50003C69190ADBB203EB0113EFF310888EF330
:101E60001088118889B211B9C17080F803A0118857
:101E7000013189B2118088F3108815F4803F54F83D
:101E8000231007D021F4803144F8231025F4803149
:101E900044F8231044F82350EFF310818EF3108898
:101EA00013889BB21BB11388013B9BB2138013882C
:101EB0009BB213B9C37080F8039081F31088318806
:101EC0000CF1010C1FFA8CF39942B8D80020BDE840
:101ED000F0870120BDE8F08701207047F803FE1F5E
:101EE0005804FE1F00282ED070B5436886B0044603
:101EF000002B2AD01649174DCE68092200230192E3
:101F0000CDE90233CDE9043302A901A8B0470A2381
:101F10008DF80430029B6B60059BAB6002A9BDF895
:101F20000C302B6001A8B047012302A98DF80530C1
:101F300001A8029B2B61B047029BEB602046FFF794
:101F400067FF06B070BD01207047012006B070BD6C
:101F5000BCA90000F803FE1F30B4124C2268B2EB9B
:101F6000102F0CD9A268030AC0B252F8235000F116
:101F7000100C012202FA0CFC1CEA050F02D103200E
:101F800030BC704751B1226900EB031330BC52F8EA
:101F90002330C3F3400300200B707047104630BC61
:101FA000704700BFF803FE1F30B4154C2368B3EB35
:101FB000102F0CD9A368020AC0B253F8225000F1C6
:101FC000100C012303FA0CFC1CEA050F02D10320BC
:101FD00030BC704789B164685201043403FA00F0E0
:101FE000145982B200EA1440824214BF002000203B
:101FF00030BC0CBF0B7008707047184630BC70477F
:10200000F803FE1F174A10B51468B4EB102F0DD952
:10201000030A9468C0B254F8234000F1100C4FF04A
:10202000010E0EFA0CFC1CEA040F01D1032010BDB6
:102030007145FBD852680CD0083202EB43130EFAFC
:1020400000F0596841EA0041090C09045960002078
:1020500010BD083202EB431381405868014389B236
:10206000F4E700BFF803FE1F012921D830B4124C59
:102070002368B3EB102F4FEA10220BD9A368C0B22C
:1020800053F8225000F1100C012303FA0CFC1CEA57
:10209000050F02D1032030BC704703FA00F049B1AC
:1020A00083B2616852010831002030BC5350704740
:1020B000032070470304F4E7F803FE1F2DE9F04105
:1020C0002E4D2B68B3EB102F84B00CD9AB68060AE9
:1020D000C7B253F8263007F110024FF0010808FA92
:1020E00002F21A4203D1032004B0BDE8F08102AB32
:1020F000ADF80C0068460C4602910193ADF80080E3
:10210000FFF7A0FDD5E9035107EB0613EFF31086A7
:1021100088F310881A48028892B212B9EA704022F5
:10212000EA700288013292B2028086F31088E603D8
:1021300051F8232007D522F4803241F8232024F4DB
:10214000803241F8232041F82340EFF3108201232D
:1021500083F3108803889BB21BB10388013B9BB2B9
:10216000038003889BB213B98021EB70E97082F37E
:102170001088002004B0BDE8F08100BFF803FE1F06
:102180005804FE1F034B04301B6823F82010002066
:10219000704700BF5C04FE1F034B1A68031D00203C
:1021A00022F82300704700BF5C04FE1F034B1A682F
:1021B000137843F080030020137070475C04FE1F07
:1021C000034B1A6813786FF3C7130020137070471E
:1021D0005C04FE1F20B14FF0022303600020704713
:1021E0000120704770B586B0002830D01A4A00230D
:1021F0000B21CDE90113CDE90333D26805930446E1
:1022000002A901A89047054610B1284606B070BD46
:10221000124E029B336001A803F042FF62685AB17C
:10222000A368306803EB820C598813F8042B04323E
:102230009C4520F82210F7D12378002BE5D0326896
:102240001378284643F08003137006B070BD012553
:10225000284606B070BD00BFBCA900005C04FE1F8C
:1022600060B1012808D1094B1B68002040214122A0
:10227000187119711A71704701207047034B1B6860
:1022800040214122987099709A7070475C04FE1F3B
:10229000062070470620704790B10A4B02689A42A8
:1022A0000CD190F90630084AC033126852F8231056
:1022B0006FF3186142F82310002070470720704721
:1022C00001207047004354446804FE1F20B14FF0C2
:1022D00002230360002070470120704730B31A4B7F
:1022E00002689A4224D109B3184B1B68DB8900228B
:1022F0008A7113F4004F9AB290F9063004D052B2AA
:10230000934204BF01228A71114A52F82330D878CF
:1023100000F0C00080280DD0DB8940289BB28B8064
:102320000FD048B94FF480330B60704701207047DD
:10233000072070479B898B804FF480730B600020CF
:102340007047DBB28B80F7E7004354446404FE1F00
:102350000000FE1F08B3124A01689142034618D1DB
:1023600090F9062012F1210F15D00E4902F1C0009C
:10237000096810B451F820406FF3186441F8204008
:1023800009485DF8044B002140F822100846196006
:102390007047072070470B2070470120704700BF2F
:1023A000004354446804FE1F0000FE1F50B31F4B3F
:1023B00002689A4228D190F9063013F1210F2ED0ED
:1023C0001B4A52F823209168E1B15168D1B1D1780C
:1023D00001F03001102919D0202910D0154AC0333E
:1023E000126852F823106FF3104142F8231052F88C
:1023F000231041F0807142F823100020704791684B
:1024000089070ED00120704707207047906810F0B0
:102410000100F8D1506810F00100DFD070470B20A8
:10242000704752689207EDD1D8E700BF004354448B
:102430000000FE1F6804FE1FF0B583B001910092FA
:1024400000283BD0234990F9062051F82240E1783A
:1024500011F0C00127D1204D0668AE4231D11F4D89
:10246000C0322E681E4D56F822702D686FF3186723
:1024700046F822702A786FF304122A70019A0AB182
:10248000019A6260009A0AB1009AA26080291ED067
:1024900001B9E381FFF78AFF2B7843F010032B701B
:1024A00090B903B0F0BD7BB10B4D0668AE4208D1C8
:1024B0008029D4D1E589ADB2002DD0D1012003B05F
:1024C000F0BD072003B0F0BD132003B0F0BDA38121
:1024D000E0E700BF0000FE1F004354446804FE1FF5
:1024E0006404FE1F2DE9F04182B001919DF820E0C7
:1024F000BDF82460009200283FD090F906C0244D1A
:1025000055F82C20D17801F0C001802939D1002E56
:1025100033D0002B31D01F4C0168A14235D11E4968
:102520001E4C0F6824680CF1C00157F821806FF32E
:10253000186847F8218021786FF304112170019900
:1025400009B101995160009909B100999160968192
:10255000D381D3786EF30513D37055F82C309A7B62
:10256000DA73FFF723FF2378002843F0100318BF26
:102570001320237002B0BDE8F081012002B0BDE855
:10258000F081062002B0BDE8F0810720F6E700BF29
:102590000000FE1F004354446804FE1F6404FE1F35
:1025A00000287CD02DE9F0470E4686B0002955D092
:1025B0000B68002B52D0DA7812F0C00F054648D1D4
:1025C000504B2A689A424DD04F4F3B78002B4DD04C
:1025D0004E4B1C68B6F804E0002302E00133702B78
:1025E0005FD003F1C00C59B254F82C20C2F308029A
:1025F0009645F3D154F82C20454CC2F30802AA802A
:1026000054F8232072BBD6F800C06246D07810F090
:10261000C00F1CBF907BD073907810F0C00002F107
:102620001002F3D13B4ADFF8DCE017683A7860F338
:1026300004123A7044F823C0A971B079C5F800E0DB
:10264000002835D13B7843F010033B7006B0BDE85D
:10265000F087DB899BB2B3F5807FB1D9012006B04A
:10266000BDE8F087082006B0BDE8F0870822019297
:10267000294A0293CDE90333D468059302A901A83E
:10268000A0470028EBD1DFF88C90029BC9F80030FE
:1026900001A803F0ADFD8046A8B10A20DFE70120C4
:1026A0007047D4F87C32C3F308030B20AB80D6E725
:1026B0002846FFF77BFE3B78002843F010033B7071
:1026C00018BF1320CBE7DFF848A001A803F0E8FC0F
:1026D00041464FF4E072504606F0A2FAD9F80030B5
:1026E000C3F804A01A7B42F001021A7306238DF886
:1026F000043001A802A9A047044B029C1C600123DE
:102700003B7067E7004354446004FE1F6804FE1FEB
:102710000000FE1F6404FE1FBCA9000006207047D5
:10272000062070470620704720B14FF00223036057
:10273000002070470120704732490B6893F8282029
:1027400002F03003102B0CD0202B02D000238B6121
:10275000704790F82B302C4A9B0932F813305BB944
:102760007047038D10B403F00303284C34F8133082
:1027700003BB5DF8044B704707EE903AB8EE677AFA
:10278000D1ED047A90F82B30F8EE676A03F01F035E
:10279000C6EE877A07EE103AB8EE477AF7EE006A8F
:1027A00037EE267A67EE877AFCEEE77A17EE903AF4
:1027B0008B617047520622D5028D12F0100F0CBFAC
:1027C0000322002201EB820207EE903AD2ED016A69
:1027D000038D5DF8044BF8EE677AF8EE666AC3F392
:1027E000052386EEA77A013307EE903AFAEEEF7AE8
:1027F00067EE277AFCEEE77AC1ED067A704703228E
:10280000E0E700BF0C04FE1FD8A30000E8A300000F
:1028100051B3062810B429D005280AD004282DD099
:10282000D8B1012842D0022838D003282ED0032066
:1028300010E0224C0023E0690B60026AC2F30272CE
:1028400090F8263003F0070304EB830300205B6855
:10285000D3400B605DF8044B7047184C0860E0698A
:10286000026AC2F30232EBE701207047134C0023E7
:10287000E0690B60026AC2F30262E1E70F4C0023D9
:10288000E0690B60026AC2F30242D9E70B4C0023F5
:10289000E0690B60026A02F00702D1E7074C0023EF
:1028A000E0690B60026AC2F30212C9E7034C00231D
:1028B000E0690B60026AC2F30222C1E70C04FE1F4A
:1028C00038B5084BDD690446002003F03DFD95F85E
:1028D000303064F30003002085F8303003F004FD4D
:1028E000002038BD0C04FE1F084B10B5DC69002029
:1028F00003F02AFD94F8523043F00103002084F8DD
:10290000523003F0F1FC002010BD00BF0C04FE1F8C
:10291000084B10B5DC69002003F016FD94F8523026
:102920006FF30003002084F8523003F0DDFC002038
:1029300010BD00BF0C04FE1F084B10B5DC69002061
:1029400003F002FD94F83E3043F08003002084F849
:102950003E3003F0C9FC002010BD00BF0C04FE1F78
:10296000084B10B5DC69002003F0EEFC94F83E3013
:102970006FF3C713002084F83E3003F0B5FC00204D
:1029800010BD00BF0C04FE1F084B10B5DC69002011
:1029900003F0DAFC94F8533043F00103002084F88C
:1029A000533003F0A1FC002010BD00BF0C04FE1F3B
:1029B000084B10B5DC69002003F0C6FC94F85330D6
:1029C0006FF30003002084F8533003F08DFC0020E7
:1029D00010BD00BF0C04FE1F38B5084BDD6904466E
:1029E000002003F0B1FC95F8243064F306130020B6
:1029F00085F8243003F078FC002038BD0C04FE1F5D
:102A000030B583B003F068F94FF0E02301901D6901
:102A1000186910F0020028D0DDED017A164CF8EEAE
:102A2000677AF7EE006A86EEA77A0020186194F8BC
:102A30002320D1B2DFED117ADFED116A27EE277A7C
:102A4000C6EE877AFCEEE77A17EE902A013AB2F1E9
:102A5000807F0CD25A61F02284F8232001F0F0012B
:102A6000072298611A6184F8231003B030BD122048
:102A70001D6103B030BD00BF00ED00E000247449CB
:102A800000401C4608B1FFF7BBBF0320704700BFE2
:102A9000052827D0144B042870B5DD6904460E467E
:102AA00006D195F88034DB0702D54FF4C87070BDAD
:102AB000002003F049FC95F83E306FF3C71385F80A
:102AC0003E3095F83E3066F3061385F83E3095F8B3
:102AD0003E3064F30203002085F83E3003F004FC2E
:102AE000002070BD032070470C04FE1F38B5002481
:102AF00002F0070261F30E349DF810C09DF8141027
:102B000062F30A2463F306140E4B6CF302041B6891
:102B100061F312449DF8181093F82A3061F31E7483
:102B20009DF81C10054661F31A645B0748BF62F309
:102B30001244002003F008FC2C620020BDE838405D
:102B400003F0D2BB0C04FE1F10B5174BDC6994F8E0
:102B50004120D00706D494F84130DB074FF0000045
:102B600010D410BD1A6894F8263092F82820510627
:102B700003F0070313D4052B01D0032BEBD140F254
:102B8000971010BD03F0E0FB94F841306FF30003A1
:102B9000002084F8413003F0A7FB002010BD228DF7
:102BA000D206EAD4E7E700BF0C04FE1F06207047F8
:102BB000062070470620704706207047024630B353
:102BC00029B3144BDB6993F826C0CCF3020C82F8CE
:102BD00000C01A6AC2F302320A701A6AC2F30222F1
:102BE0004A701A6AC2F302128A701A6AC2F30202A7
:102BF000CA701A6AC2F302420A711A6AC2F30272F6
:102C00004A711B6AC3F3026300208B717047012075
:102C1000704700BF0C04FE1F2DE9F84300295AD06D
:102C2000002874D03D4DEB6993F8AA4014F00104DC
:102C30006DD193F8A020196A1C6A1F6A2E68C7F329
:102C4000021C1F6A07F0070E1F6AD3F820901B6A48
:102C5000C3F30268B36802F00302C1F30231C4F3A4
:102C60000224C7F30247C9F3027953B3032A28D1D8
:102C700033698B422DD8A3422BD8634529D873459D
:102C800027D84B4525D8BB4223D8434521D80146F8
:102C9000012003F0EFF8EC69002003F055FB94F8F5
:102CA000403043F0800384F8403094F8403043F0E3
:102CB0000103002084F8403003F016FB0020BDE83B
:102CC000F883F368002BE2D0022AE0D173698B42CB
:102CD000D1D90520F3E7114BDD6995F84130DB07C9
:102CE00018D408460C4603F02FFB95F8403064F3E7
:102CF000000385F8403095F8403064F3C713204650
:102D000085F8403003F0F0FA2046BDE8F883012052
:102D1000BDE8F8834FF4CB70BDE8F8830C04FE1FC8
:102D200070B5434D88B0284603F096F8414A002319
:102D30000321CDE90433CDE906330191D26804A91A
:102D400001A89047049CEC614FF6FF73029394F83E
:102D50003630DE0754D5002003F0F6FA94F8A5309B
:102D6000062262F3020384F8A530002003F0BCFAC7
:102D70002B68EC69D3E906232B612F4BAB60002055
:102D80004FF400434FF6FF766A60A861EB606B6119
:102D9000029603F0D9FA94F8803443F0010384F8E2
:102DA0008034002003F0A0FAEC69039694F8803494
:102DB000D80714D5039BFBB12B68226A93F82250E5
:102DC00094F82630002003F0BFFA94F88034DB0733
:102DD00027D4002003F088FA002008B070BD039BC0
:102DE000002BE7D0039B013B039394F88034DA0770
:102DF000F5D5039B002BDFD14FF4CD7008B070BD2B
:102E000094F83C30D90708D4029B33B1029B013BB4
:102E1000029394F83C30D907F6D5029B002B9AD147
:102E2000EAE794F8813423EA050384F88134D0E793
:102E30000C04FE1FBCA9000000127A0005292ED840
:102E4000DFE801F00A11181F260390F82A0000F0AD
:102E5000010080F00100704790F8360000F001009A
:102E600080F00100704790F8380000F0010080F019
:102E70000100704790F8900400F0010080F001001C
:102E8000704790F8320000F0010080F001007047B8
:102E900090F8800400F0010080F0010070470020ED
:102EA000704700BF052867D870B5554D0446E869DE
:102EB00090F8263003F007039C4282B020D0052B07
:102EC00011D090F82A30DB070DD5012C1CD190F8D9
:102ED0004030DB0978D12146FFF7B0FF002866D1EA
:102EE000002002B070BD2B6893F828305E0669D5CB
:102EF000038D13F0100F0CBF032300239C42E4D179
:102F000040F2911002B070BD2146FFF797FF0028F4
:102F1000E6D0032CEE693CD0052C07D196F83C3066
:102F20009B0654D440F2931002B070BD34BB96F8A7
:102F30003C30D907F6D5204603F006FA96F836302D
:102F400043F0010386F83630002003F0CDF94FF648
:102F5000FF73019304E0019B43B1019B013B01938B
:102F6000E8692146FFF76AFF0028F4D1019B002B96
:102F7000B6D14FF4CD70B4E703207047002003F0C2
:102F8000E3F9631E042BDFD8DFE803F015320A2BC8
:102F9000240096F83C301A07C4D5002003F0D4F979
:102FA00096F8323043F0010386F83230CCE7002047
:102FB000EE6903F0C9F996F8383043F0010386F85A
:102FC0003830C1E7032399E740F2951089E70020E4
:102FD00003F0BAF996F82A3043F0010386F82A3054
:102FE000B2E796F8803443F0010386F88034ABE70B
:102FF00096F8903443F0010386F89034A4E700BFBC
:103000000C04FE1F05281DD808B5431E012B0146E0
:1030100008D9042806D068B1032815D005281FD088
:10302000002008BD194BD869FFF708FF38B140F2FE
:10303000911008BD154AD069FFF700FFF0B94FF4B1
:10304000C87008BD03207047104AD069FFF7F6FE2C
:103050000028F4D0D36993F83C301B070BD512E05D
:103060000A4AD069FFF7EAFE0028E8D0D36993F84E
:103070003C30990607D440F2931008BDD36993F809
:103080003C30DA07F7D54FF4C97008BD0C04FE1FB9
:1030900030B583B04FF6FF730446012001930D460F
:1030A00003F052F900230DF103008DF8033002F014
:1030B00087FD94F8AA30D80605D494F8A030D90634
:1030C000C3F300120AD5019B013B0193019B002B26
:1030D000EFD1012003F008F903B030BD94F8AA3015
:1030E0004FF6FF7162F3000384F8AA30019102E009
:1030F000019B013B019394F8AA30DA0603D494F8BB
:10310000A030DB0602D5019B002BF1D194F8A03052
:10311000042D0CBF43F0030365F3010384F8A030D2
:103120004FF6FF73019302E0019B013B019394F87A
:10313000AA30D80603D494F8A030D90602D5019B52
:10314000002BF1D194F8AA30042D0CBF43F00103F9
:103150006FF3000384F8AA304FF6FF73019302E087
:10316000019B013B019394F8AA30DA0603D494F84A
:10317000A030DB0602D5019B002BF1D19DF80300A6
:1031800002F032FD012003F0AFF803B030BD00BF04
:103190000428124B0ED002280CD01A6892688A427A
:1031A00007D3D86990F82A30DB0702D50321FFF74F
:1031B0006FBF7047D86990F82A20D207EDD590F8F4
:1031C0003220D207E9D590F83620D207E5D590F81D
:1031D0003820D207E1D50421FFF75ABF0C04FE1FA7
:1031E0002DE9F041052888B02BD80C46002900F0C5
:1031F000AE800B788A79934223D34978994220D3C1
:10320000E17899421DD8637993421AD3217991428A
:1032100017D30428074619D0674EF06990F8263076
:1032200003F007039F4228D0002F00F0BC80032F3B
:1032300040F0AE8090F83C301A071ED440F293154F
:1032400000E00325284608B0BDE8F081134340F0B4
:10325000A880594EF06990F84030DB0940F0A18019
:1032600090F8263003F00703042B06D03946FFF709
:10327000E5FD002800F09D80F069036A036A036A97
:10328000036A036A036A036A0021C3F30268FFF753
:10329000FFFE00238DF810308DF81C3006EB8703FD
:1032A000A2795B68D3400593F3691A6A93F82630D4
:1032B00003F0070306EB8303C2F302625B6804A812
:1032C000D340069302F018FD05460028BAD1A37931
:1032D000984541D203936379029323790193E3786C
:1032E0000093A37862782178F069FFF7FFFBF46917
:1032F000284603F029F894F8263067F3020328469D
:1033000084F8263002F0F0FFF3691A6A93F8263049
:1033100003F0070306EB8306C2F302627368012120
:10332000D34004A88DF81010069302F0E5FC054682
:10333000002887D102F0D0FC204B014618600028FD
:1033400037D03846FFF724FFFFF75AFB7AE701250D
:10335000284608B0BDE8F081D6F81C8002F0F4FFE2
:1033600098F8263067F30203284688F8263002F0E2
:10337000BBFFA37903936379029323790193E378E5
:103380000093A37862782178F069FFF7AFFBBBE781
:10339000052F7FF46BAF90F83C309B063FF56DAF87
:1033A0004CE705254EE790F83C30D9073FF565AF6F
:1033B00044E74FF4C87545E70C04FE1FC404FE1F24
:1033C0002DE9F0432DED028B042883B0044668D02C
:1033D000012800F0498120BBB74DEE6996F83C30DA
:1033E000DB0700F1538196F8AA30DF0700F1558121
:1033F00096F8A030002002F0A7FF96F836306FF361
:10340000000386F83630002002F06EFF4FF6FF739F
:10341000EA690193052C1BD8DFE804F0343E392F0C
:103420002016032800F0CE8005285BD0A24D002096
:10343000EE6902F089FFA31E032BE4D8DFE813F046
:103440000D0106014400BB0092F82A30DB0709D5C4
:10345000019B3BB1019B013B0193DBE792F8803478
:10346000D907F5D4019B002B14BF00204FF4CD7079
:1034700003B0BDEC028BBDE8F08392F83230DD077B
:10348000E6D4EFE792F83630DB07E1D4EAE792F8CA
:103490009034DE07DCD4E5E792F83830DF07D7D484
:1034A000E0E7854D2B68EE6993F82270002002F06A
:1034B0004BFF96F88034D9070DD4002002F014FF9A
:1034C0000020EE6902F040FF96F880346FF30003AD
:1034D00086F8803497E796F8813423EA070386F864
:1034E0008134EAE70E46002900F0EE80724D7278D2
:1034F0002B6893F824109142C0F0DB8093F82620CB
:1035000096ED017A07EE902AF8EE677AF4EEC77A24
:10351000F1EE10FA00F1CD8093F8253007EE903AE5
:10352000F8EE677AB4EEE77AF1EE10FA00F1C180B6
:103530003178032902D0002940F0BB80E869FFF709
:103540007DFC002800F0C280EF6997F83C309906B6
:1035500000F19C8097F8AA30DA0700F1BA8097F85A
:10356000A03096F80080002002F0EEFE3B8DB8F10E
:10357000030F0CBF6FF3041343F010033B850020CF
:1035800002F0B2FE2B68EF6993F8283096F80180BC
:1035900003F03003102B00F0D080202B00F09F8030
:1035A0003846FFF7C9F8E8690021FFF771FD0020F0
:1035B000EE6902F0C9FE96F82A306FF3000386F830
:1035C0002A3020E73C4DEF6997F83C301E075DD468
:1035D00097F8AA30D80771D497F8A0302B6800204C
:1035E00093F8276093F8208093F8219002F0ACFEC6
:1035F00097F8133406FA09F25BB25A4002EA08025D
:103600005340DBB287F81334002002F06DFEEE6900
:10361000002002F099FE96F813346FF3861386F8B3
:103620001334002002F060FEEE69002002F08CFEF0
:1036300096F8A230052262F3030386F8A230002038
:1036400002F052FE0020EE6902F07EFE96F8323063
:103650006FF3000386F83230D5E696F890346FF3B6
:10366000000386F89034CEE6134DEE6996F8AA3042
:10367000DA0718D496F8A030002002F065FE96F81C
:1036800038306FF3000386F83830BCE640F2931010
:1036900003B0BDEC028BBDE8F08330460321FFF799
:1036A000F7FCEE69A6E630460321FFF7F1FCEE6970
:1036B000E2E70320DCE600BF0C04FE1F384621468B
:1036C000FFF7E6FCEF6989E70120D1E64FF4CA7005
:1036D000CEE638460321FFF7DBFCEF6941E72F4BCD
:1036E000002033F8188002F02FFE97F82B3068F393
:1036F000871387F82B30002002F0F6FD2B68EF6966
:1037000093F8283096ED018A03F03003102B2ED069
:10371000202B10D1002002F017FEFCEEC87A97F89B
:103720002B2017EE903A013B63F3040287F82B201D
:10373000002002F0D9FDEF6932E7194B002033F881
:10374000189002F001FE3B8D69F301033B850020D8
:1037500002F0CAFD2B6893F8283003F03003202BC9
:10376000BDD0102BEF697FF41BAF96ED018A0020CE
:1037700002F0EAFD78EE087A3A8DFCEEE77A002056
:1037800017EE903A013B63F30D223A8502F0ACFD4F
:103790002B6893F8283003F03003B9E7D0A300007A
:1037A000E0A3000005280AD8194A08B5431ED269CB
:1037B000042B27D8DFE803F00D21171C0500032098
:1037C000704792F82A30DB0707D5BDE80840FFF7BD
:1037D000F7BD92F83830DB07F7D41046FEF7ACFFA0
:1037E00040F2911008BD92F83230DB07EDD4F4E7D7
:1037F00092F88034DB07E8D4EFE792F89034DB07E7
:10380000E3D4EAE792F83630DB07DED4E5E700BF21
:103810000C04FE1F2DE9F04383B0012801910C46F2
:103820001CD0022803D0002003B0BDE8F083052996
:10383000164619D0DFF8A080D8F81C002146FFF703
:10384000FDFA00283DD1311D2046FFF7B9FD0028C3
:10385000E9D040F291139842E5D0E5E7084603B07D
:10386000BDE8F043FFF71EBB1279052A27D8DFF821
:1038700068801146D8F81C00FFF7E0FA30BB3146EB
:103880001046FFF79DFDA8B996F804904FF6FE7517
:1038900040F2931701E0013DC6D04846FFF7B2FB66
:1038A000B842F8D00028C7D06FF4C873C318012BF2
:1038B000C2D9B9E740F291139842E5D0B4E70320AA
:1038C000B2E7D8F81C00FEF737FFACE7D8F81C00C9
:1038D000FEF732FFD8E700BF0C04FE1F2DE9F047CA
:1038E00082B0002854D0DFF85C810678D8F81C300C
:1038F00090F815A093F826701A6A1A6A1A6A1A6A5A
:103900001A6A1A6A1B6AC37C8DF80230037D8DF82F
:103910000130C37D8DF803308146837D007E8DF8B4
:1039200000A0052E07F007078DF804308DF805007C
:1039300029D806F108036B4413F8083C012B22D068
:10394000022809D199F80430052B1CD808336B44A0
:1039500013F8083C012B16D04A460521FFF75AFF01
:103960000446002849D140F29115E1B24A4650463A
:103970000134FFF74FFF08B1A84249D1052C0CD004
:103980001DF804A0F1E70324204602B0BDE8F0874B
:103990000124204602B0BDE8F0874FF6FE7540F2E4
:1039A000931A01E0013DEFD03046FFF72BFB504565
:1039B0000446F7D020B16FF4C8754319012BE3D842
:1039C000042E27D0002509F10C013046FFF708FC32
:1039D00004460028D8D1BE4206D007F108036B4444
:1039E00013F8083C012B0ED0002DCDD002F074F955
:1039F00001463046FFF7CCFBC6E740F291139842F0
:103A0000C2D10024AFE73846FFF74CFA0028EBD0CC
:103A10000446B9E7D8F81C3093F82A20D0070ED511
:103A200093F83220D1070AD593F83620D20706D56D
:103A300093F8385005F0010585F00105C3E701252D
:103A4000C1E700BF0C04FE1F38B50446072927D87C
:103A5000DFE811F08200A700D50008006B01180113
:103A600099012900B0F840386FF38A23A0F8403854
:103A7000B0F8423859050CD541F2873501E0013DD7
:103A800007D00121084602F057FBB4F842385A0526
:103A9000F5D4B4F84238C3F380225B0540F1C68107
:103AA0004EF6612038BDB0F840386FF38A23A0F895
:103AB0004038B0F84038022262F30923A0F84038B9
:103AC000B0F8423803F4E063B3F5007F0FD041F261
:103AD000873501E0013D0AD00121084602F02CFBA8
:103AE000B4F8423803F4E063B3F5007FF2D1B4F8E0
:103AF000423803F4E063B3F5007FD1D1052384F8A5
:103B00005838B4F840386FF38A23A4F84038B4F832
:103B100040386FF30923A4F84038B4F8423803F46E
:103B2000E06373B141F2873501E0013D09D0012125
:103B3000084602F001FBB4F8423803F4E063002BBE
:103B4000F3D1B4F8423803F4E063B3FA83F35B09CA
:103B5000002BA5D0002038BD002380F85838B0F8DD
:103B6000402863F38A22A0F84028B0F8402863F385
:103B70000922A0F84028B0F8423803F4E063002B93
:103B8000DFD041F2873501E0013DDAD0012108465E
:103B900002F0D2FAB4F8423803F4E063002BF3D118
:103BA000CFE7B0F840386FF38A23A0F84038B0F878
:103BB0004038022262F30923A0F84038B0F84238B6
:103BC00003F4E063B3F5007F0FD041F2873501E0E5
:103BD000013D0AD00121084602F0AEFAB4F842389D
:103BE00003F4E063B3F5007FF2D1B4F8423803F494
:103BF000E063A3F50073B3FA83F35B09A8E7B0F8B9
:103C000040386FF38A23A0F84038B0F840380222D9
:103C100062F30923A0F84038B0F8423803F4E063B7
:103C2000B3F5007F0FD041F2873501E0013D0AD0A6
:103C30000121084602F080FAB4F8423803F4E06348
:103C4000B3F5007FF2D1B4F84238B4F8403843F409
:103C50008063A4F84038B4F842385A050CD441F2D5
:103C6000873501E0013D07D00121084602F064FAE2
:103C7000B4F842385B05F5D5B4F8423858057FF5FD
:103C80000FAF67E7B0F840386FF38A23A0F84038E9
:103C9000B0F84038022262F30923A0F84038B0F8A7
:103CA000423803F4E063B3F5007F0FD041F287356B
:103CB00001E0013D0AD00121084602F03DFAB4F8C6
:103CC000423803F4E063B3F5007FF2D1B4F8423830
:103CD00003F4E063B3F5007F7FF4E2AE032384F8DE
:103CE0005838B4F840386FF38A23A4F84038B4F851
:103CF00040386FF30923A4F84038B4F8423803F48D
:103D0000E063002B3FF41DAF41F2873502E0013D37
:103D10003FF417AF0121084602F00EFAB4F842381A
:103D200003F4E063002BF2D10BE7B0F840386FF3F7
:103D30008A23A0F84038B0F84038012262F3092302
:103D4000A0F84038B0F8423803F4E063B3F5807F60
:103D50000FD041F2873501E0013D0AD0012108462C
:103D600002F0EAF9B4F8423803F4E063B3F5807F77
:103D7000F2D1B4F8423803F4E063A3F58073B3FAE8
:103D800083F35B09E4E6B0F840386FF38A23A0F8C8
:103D90004038B0F84038022262F30923A0F84038D6
:103DA000B0F8423803F4E063B3F5007F0FD041F27E
:103DB000873501E0013D0AD00121084602F0BCF937
:103DC000B4F8423803F4E063B3F5007FF2D1B4F8FD
:103DD000423803F4E063B3F5007F7FF461AE07235C
:103DE00084F85838B4F840386FF38A23A4F8403880
:103DF000B4F840386FF30923A4F84038B4F84238D7
:103E000003F4E063002B3FF49CAE41F2873502E0FF
:103E1000013D3FF496AE0121084602F08DF9B4F859
:103E2000423803F4E063002BF2D18AE6B4F840385C
:103E300062F38A23A4F84038B4F8403862F30923C7
:103E4000A4F84038B4F8423803F4E063002B3FF4A0
:103E500078AE41F2873502E0013D3FF472AE0121B8
:103E6000084602F069F9B4F8423803F4E063002B25
:103E7000F2D166E6002958D04FF0000C2DE9F04F42
:103E8000151DE046571D4FF0400B24E00CF1200EAD
:103E90004FEA0E1A84F82098E3BB50F80A9052F8C3
:103EA0003C6066F39C4940F80A904FEA0E1E50F8B9
:103EB0000E906FF3DF7940F80E9017F83CA050F8A1
:103EC0000E900CF1010C6AF39E79614540F80E905A
:103ED00084F820B812D015F83C9000EB0C04B9F12E
:103EE000000FD3D0B9F1010F08BF00EB0C040CF1A7
:103EF000010C08BF84F820886145ECD11F2998BFC8
:103F0000002205D843180131202983F82028F9D14F
:103F1000BDE8F08F52F83C600CF1200E4FEA0E1A0B
:103F200026F0604940F80A90BFE7002243180131AB
:103F3000202983F82028F9D1704700BF89082DE98E
:103F4000F04129D0043A002502EB810E4FF00F0C0E
:103F500029466FF060460FE040F8276050F8278050
:103F600064F39C4840F8278045EA0C0572454FEA07
:103F70000C1C01F101010AD052F8044FB442F5D2F1
:103F800001F58077002BE7D040F82740ECE7ED43C0
:103F9000C0F82854BDE8F0814FF0FF35C0F8285430
:103FA000BDE8F08138B5B0F8403843F02003A0F800
:103FB0004038B0F840389A0605460CD541F28734AF
:103FC00001E0013C07D00121084602F0B5F8B5F840
:103FD00040389B06F5D4B5F84008C0F3401080F097
:103FE000010038BD70B5D0F8445882B0002315F0F8
:103FF0000105044601930E4607D1104B01A99B69A8
:1040000001209847B0B9019A00E00D4AD4F844085D
:10401000D4F84438D4F84418C3F3022303EB1073E4
:10402000C1F3094101310333B2FBF1F20125B2FBC7
:10403000F3F33360284602B070BD00BF64A30000F4
:1040400000366E0100B500210B4600EB011201F1B4
:10405000200C00EB0C1CC2F800329CF805E001318A
:1040600063F3030E20298CF805E082F8063282F80B
:10407000073282F8083282F8093282F80A3282F86E
:104080000B3282F80C3282F80D32A2F80E32DCD1FB
:104090005DF804FB014491F8200880F04000C0F373
:1040A0008010704730B501F120044FEA041E50F82B
:1040B0000E50C5F3807C83F80DC01ABB50F80E205B
:1040C000C2F38A4200EB04141A60627902F00F0214
:1040D000082A964628BF4FF0080E83F804E062B124
:1040E0005A1D00EB0114002304EB030C01339CF870
:1040F00006C202F801CB7345F6D10844402380F88C
:10410000203830BD50F80E20DCE700BFF0B583BB8F
:1041100001F120073B011568C45865F39C44C45065
:1041200000EB071514796B7964F303036B717CB1B1
:10413000531D6FF004051C44AD1A00EB011605EB8E
:10414000030C13F801EBB444A3428CF806E2F6D159
:104150003F01527BC359014462F39E73C351002354
:1041600081F8203891F8203843F0800381F8203816
:10417000F0BD136801F120073C0123F060430351B7
:10418000CEE700BF90F84D38DBB20B6013B10023CF
:1041900080F84D38704700BF10B5B0F842380C4673
:1041A000002282B04FF000019BB262F3C70163604E
:1041B0000192A171D9B2DB0707D580F8532890F896
:1041C0005228A37962F3C703A371E3796FF3040361
:1041D000E371CB0608D5022380F8533890F85228B3
:1041E000E37962F30403E37190F85838A279A3F1FC
:1041F0000303B3FA83F35B0963F30002A27190F83F
:104200005838A3F10703B3FA83F35B09D2B263F31F
:104210008202A27190F85838A3F10503B3FA83F330
:104220005B09D2B263F34102A27190F84E38637316
:1042300090F84F38237390F85038DBB283F07F0248
:10424000236101A980F85028FFF7CCFE08B1019B3B
:10425000A36002B010BD00BFB0F8423890F84D28FE
:10426000C3F3C0131AB1002380F84D38012390F82E
:104270005028520603D0002380F8503801231846F6
:10428000704700BF20B14FF0022303600020704749
:104290000120704790B18AB138B50A4B0446406896
:1042A000984209D101290BD11578206A2946FFF7D8
:1042B000CBFB00B9257238BD072038BD01207047FF
:1042C000032038BD4E41435290B370B516468AB3B1
:1042D000194B04464068984217D11F290D4625D82E
:1042E000206AFFF7D7FE012811D13379082B1DD89A
:1042F000206A431993F82018CA090BD093F82018A4
:10430000CA0707D44EF6632070BD072070BD4EF675
:10431000642070BD2946002583F8205883F8205872
:10432000637A3246FFF7F2FE284670BD032070BD67
:1043300001207047012070BD4E41435288B138B50D
:104340000D4681B10A4B42689A42044601D00720CB
:1043500038BD006AFFF720FF38B1237A2B700020A8
:1043600038BD01207047012038BD4EF6602038BDB1
:104370004E41435200283FD0F8B51546002A3DD0A3
:10438000294B42689A42044601D00720F8BD076ACB
:1043900038460E46FFF77EFE90BBBB1993F82028E7
:1043A000D00726D593F82038990722D4627A2B4675
:1043B00031463846FFF776FE236AB3F84228D20624
:1043C00002D5227D012A20D0B3F8420810F0010066
:1043D000DCD094F92530002B15DB5A091348012154
:1043E000403203F01F0301FA03F340F822300020AB
:1043F000F8BD4EF66020F8BD012070470120F8BDE1
:104400004EF66520F8BD0020F8BD94F9241000296F
:10441000DADB480901F01F018A40044D00F1400138
:1044200045F82120D0E700BF4E41435200E100E0B3
:1044300038B5044690F92400256A10F1210F21D0E7
:1044400000280FDB430939492033012200F01F0007
:1044500002FA00F041F82300BFF34F8FBFF36F8FD4
:1044600094F9240001F098FE94F92430002B09DB24
:104470005A092E4803F01F036032012101FA03F3A9
:1044800040F8223094F9250010F1210F21D00028A6
:104490000FDB430925492033012200F01F0002FAF7
:1044A00000F041F82300BFF34F8FBFF36F8F94F9F3
:1044B000250001F071FE94F92530002B09DB5A0923
:1044C0001A4803F01F036032012101FA03F340F898
:1044D000223094F9260010F1210F21D000280FDBA3
:1044E000430912492033012200F01F0002FA00F0B4
:1044F00041F82300BFF34F8FBFF36F8F94F926006D
:1045000001F04AFE94F92630002B09DB5A090748CE
:1045100003F01F030121603201FA03F340F8223057
:10452000002385F84C38C5F82C3438BD00E100E094
:10453000D0B10E4A4168914201D00720704710B5B2
:10454000002482B0026844603023ADF80430ADF836
:104550000620FFF76DFF01A801F078FD01A801F02A
:1045600075FE204602B010BD012070474E414352F7
:104570002DE9F04F8DB00023064603A80C460593A5
:10458000ADF80C3001F058FC06B3276AF7B1A36907
:10459000E3B1E268202A13D8910711D1344B716836
:1045A000994200F0D581920815D07B6803EB820216
:1045B00001E09A420FD053F8041BB1F1005FF8D329
:1045C0004EF6622528460DB0BDE8F08F012528463D
:1045D0000DB0BDE8F08F6368002BF7D01A68013A80
:1045E000B2F5806FECD25A7919799142E8D99B796A
:1045F0009342E5D8DFF87C90BDF80C209DF80DB013
:10460000ADF810200023CDE9063307A9D9F81830FA
:1046100001930120984705460028D3D19DF810A0AA
:104620001AF0020F16D11AF0010A25D13B78012B9E
:1046300022D008AFD9F814308DF80BA039460DF10F
:104640000B00984705460028BCD19DF80B30052B80
:1046500017D0B5E7019B584606A99847054600289C
:10466000B0D1DDE90632B3FBF2F3022BDBD0A7E7D2
:104670004E41435264A30000C64B079A9A429FD30F
:1046800008AF00230893DFF82483FB60C7E90133F8
:104690002368ADF8163030233946ADF8143005A83C
:1046A000D8F80C309847089F37620546002889D112
:1046B00005A801F09DFD0546002840F04B8105A8A6
:1046C00001F0EEFCD4E9062387F84C582168C7F8BE
:1046D0002C54206A3160C6E90623237A7372E3689A
:1046E000F360BDF80C30227DADF81C30DB0732756D
:1046F000357200F1108103787375012BD4F804A092
:10470000376A00F00D8104213846FFF79DF9054610
:10471000002840F01181B7F8403860F3CC23A7F8A7
:104720004038B7F8403860F30003A7F84038B7F8CE
:104730004038727A62F34203A7F84038B7F840383D
:10474000327D62F3C303A7F84038B7F8403860F30E
:104750000413A7F84038B7F8403843F0C003A7F86F
:104760004038DAF80030D7F84428013B63F31942A7
:10477000C7F84428D7F844389AF8042062F31F7326
:10478000C7F84438D7F844389AF8052062F30A236A
:10479000C7F844389AF80620D7F8443862F30D3346
:1047A000C7F84438727DD7F8443862F30003C7F87D
:1047B000443838460121FFF747F90546002840F004
:1047C000BB80306A276A0190FFF73CFC0198802388
:1047D00080F85038D4E90312237AFFF74BFB7A684C
:1047E0000198237AE168FFF7A9FB376A2946384622
:1047F000FFF72AF90546002840F09E803846FFF76B
:10480000D1FB002800F0A8803846FFF725FD0028DE
:1048100040F0A280D8F81080079507AA294605A87D
:10482000376AC0479DF91C3086F8243013F1210FF8
:104830001CD0594A116894F82420002B4FEA021228
:10484000D2B2C0F28C80554800EB030C8CF80023E8
:1048500051F8332016600122590903F01F0302FAB0
:1048600003F340F821303E2387F84C3807AA032190
:1048700005A8C0479DF91C3086F8253013F1210F9B
:1048800018D0454A116894F82520002B4FEA0212EF
:10489000D2B26DDB414800EB030C8CF8002351F8D9
:1048A000332016600122590903F01F0302FA03F3B3
:1048B00040F8213007AA05A80421C0479DF91C3003
:1048C00086F8263013F1210F16D094F826203249AD
:1048D0001201002B0968D2B253DB3048C41884F8A7
:1048E000002351F8332016600122590903F01F03F9
:1048F00002FA03F340F82130736A294A23F07F4318
:1049000023F0FF0393421CBF4FF0FF33C7F82C3452
:10491000244B736056E601237375D4F804A0376AFC
:10492000D9F81C3003209847B0F5C97F05463FF4FD
:10493000EAAE00283FF4E7AE3046FFF779FD05A860
:1049400001F084FB05A801F081FC0023736039E6C7
:10495000082537E60A2535E64EF66225ECE71248CB
:1049600003F00F0C6044027651F833301E607AE792
:104970000D4803F00F0C6044027651F833301E608E
:1049800098E7094803F00F042044027651F83330C9
:104990001E60B1E700366E01C4A4000000E100E033
:1049A00000DFDF004E414352FCEC00E0BCA90000F8
:1049B00070B586B0EFF3058003F09AF9EFF3038347
:1049C000A3F1100040B2029301F0E6FBEFF3038283
:1049D0002E490292A2F1100309685BB251F83330FC
:1049E0001C6804B3266AF6B1002501A93046CDE95A
:1049F0000255CDE904550195FFF7C4FB9DF804303D
:104A000013F0080216D113F0100517D003238DF808
:104A10000C301546A36933B1E26921680291CDE9F2
:104A2000045202A89847EFF3058006B0BDE8704035
:104A300003F05CB902238DF80C30EBE713F00402AD
:104A400006D1990708D505238DF80C301546E1E706
:104A500004238DF80C30DDE79A0606D4236AB3F8F8
:104A60004238C3F30015DB06D4D506238DF80C308D
:104A7000022296F8533886F8532896F85258DBB23B
:104A800005F01F0586F85338C4E700BFC4A4000032
:104A900010B584B0EFF3058003F02AF9EFF3038338
:104AA000A3F1100040B2009301F076FBEFF3038214
:104AB00015490092A2F1100309685BB251F8333036
:104AC0001B68CBB11A6ABAB19C69ACB192F85308B1
:104AD0004FF0000C82F853C892F85218C0B282F816
:104AE00053088DF804C01868DA69039201F01F01B9
:104AF000009002916846A047EFF3058004B0BDE83E
:104B0000104003F0F3B800BFC4A4000030B585B076
:104B1000EFF3058003F0ECF8EFF30383A3F110004B
:104B200040B2009301F038FBEFF303822149009279
:104B3000A2F1100309685BB251F833301C688CB3E2
:104B4000236A7BB3A569DDB1012093F8531883F87C
:104B5000530893F85228C9B202F01F0283F8531881
:104B60001344002183F8201883F820188DF80400DE
:104B7000E36921680091039302926846A847236A7B
:104B8000B3F842389B070DD594F92630002B09DB8A
:104B90005A09094803F01F030121403201FA03F3C7
:104BA00040F82230EFF3058005B0BDE8304003F057
:104BB0009DB800BFC4A4000000E100E020B14FF0A8
:104BC00002230360002070470120704706207047D1
:104BD00078B10F4B826A9A420DD1C3694BB190F8FC
:104BE0002420022A1A8808D042F4007200201A8079
:104BF00070470120704707207047C2F3C03012048D
:104C000004D41A8842F400421A8070470820704782
:104C10004344415288B10B4B826A9A420FD1C36917
:104C20005BB190F82420022A1A8814BF6FF349223E
:104C30006FF3CF3200201A807047012070470720A1
:104C4000704700BF4344415260B1084B826A9A42A8
:104C50000AD1C36933B11B8813F4004F0CBF002085
:104C60000820704701207047072070474344415295
:104C700018B3CB1CDBB21E2B21D8002910B407DBE4
:104C8000124B048853F8244001238B40234212D056
:104C90000F4B846A9C420AD1AAB1C3698BB110310F
:104CA000002033F8113013805DF8044B7047072063
:104CB0005DF8044B70470320F6E70120704703209E
:104CC00070470120F0E70220EEE700BF6C04FE1FF2
:104CD0004344415218B311B31B4B826A9A421CD110
:104CE00091F90020D31CDBB2122B1ED8002A1EDB48
:104CF000164B10B4048853F82440012393402342F8
:104D00000FD0497806290CD9C369DBB113440020C0
:104D100083F8E0105DF8044B7047072070470120CE
:104D2000704703205DF8044B7047032070474978B3
:104D30000629FAD9C369002BF1D01344002083F867
:104D4000E01070470120E5E7434441526C04FE1F28
:104D500000286AD070B50D4682B0002962D03A4B67
:104D6000826A9A42044658D10379012B5FD0C66902
:104D7000002E57D0C26A002A52D04FF0FF334FF0B6
:104D8000010C184601330CFA03F11142F9D01C2B27
:104D900056D01D2B4FD000F111034FEA430C66444F
:104DA0002E6020234FF0010E1946013B0EFA03F04E
:104DB0001042F9D01C2B41D01D2B3AD001F10F032A
:104DC0005B00A3EB0C035B1001336B6001232B72C0
:104DD00000221E4B218800922022ADF80610ADF86B
:104DE00004201B696A46022101A89847B0B92388AC
:104DF000BDF802206A8104335B006B724FF0FF3311
:104E0000EB60E37A012B04D163691B68C3F30B03E6
:104E1000EB6063882B8202B070BD072002B070BDCA
:104E20004A60D3E7012002B070BD01207047032023
:104E3000F4E71C23C5E74FF01C0CB0E71A23C0E7CA
:104E40004FF01A0CABE700BF43444152BCA900002D
:104E5000E8B110B584B0002304466846CDE90033BC
:104E6000CDE9023300F0D2FF9DF80C3099070BD545
:104E7000E3691A8812040CD41B8813F4007F14BF52
:104E80001B20002004B010BD062004B010BD01207E
:104E900070471B2004B010BD30B5B0F880306FF300
:104EA0000003A0F880300388C3F34133012B038A49
:104EB00043F47C5383B00D46038203D1038A43F04D
:104EC0003F03038200242B8804802022448268460A
:104ED000ADF80230ADF8002001F0B8F8EB6ADB0065
:104EE00007D52B6903B11C70222301A8019301F09F
:104EF000ADF803B030BD00BF00B5C369887FB3F81B
:104F0000A22160F30302A3F8A221B3F8A221C87F73
:104F100060F30712A3F8A221B3F8A22191F82000B0
:104F200060F30B22A3F8A221B3F8A02191F81EE0B0
:104F300091F81FC091F8200042F00802A3F8A021C8
:104F4000B3F8A02142F08002A3F8A021B3F8A02179
:104F500042F40062A3F8A021BEF1FF0FB3F8A02134
:104F600000F097806FF30002A3F8A021B3F8A0210E
:104F700042F00202A3F8A021B3F8A02142F00402FB
:104F8000A3F8A021BCF1FF0FB3F8A02100F0978097
:104F90006FF30412A3F8A021B3F8A02142F020027D
:104FA000A3F8A021B3F8A02142F04002A3F8A02169
:104FB000FF28B3F8A02100F097806FF30822A3F830
:104FC000A021B3F8A02142F40072A3F8A021B3F805
:104FD000A02142F48062A3F8A02191F81EC0C87FEE
:104FE00091F820100CF17F02D2B23A2AB3F8B02126
:104FF00033D8CCF3011C6CF30102A3F8B021B3F851
:10500000B02142F00802A3F8B02100F17F02D2B231
:105010003A2AB3F8B0212BD8C0F3011060F305127F
:10502000A3F8B021B3F8B02142F08002A3F8B02178
:1050300001F17F02D2B23A2AB3F8B02123D8C1F3EA
:10504000011161F30922A3F8B021B3F8B02142F4B1
:105050000062A3F8B0215DF804FB6FF3C302A3F86C
:10506000B02100F17F02D2B23A2AB3F8B021D3D9ED
:105070006FF3C712A3F8B02101F17F02D2B23A2A2E
:10508000B3F8B021DBD96FF3CB22A3F8B0215DF8E0
:1050900004FB42F00102A3F8A021B3F8A0216FF3B2
:1050A0004102A3F8A021B3F8A0216FF38202A3F874
:1050B000A021BCF1FF0FB3F8A0217FF469AF42F04B
:1050C0001002A3F8A021B3F8A0216FF34512A3F8B2
:1050D000A021B3F8A0216FF38612A3F8A021FF2826
:1050E000B3F8A0217FF469AF42F48072A3F8A02145
:1050F000B3F8A0216FF34922A3F8A021B3F8A021AF
:105100006FF38A22A3F8A02167E700BF002876D0BA
:1051100010B53C4B826A9A4282B004466AD1C36998
:10512000002B6AD090F93000002310F1210FA36208
:1051300025D0984219DB420933490123203200F07F
:105140001F0003FA00F041F82200BFF34F8FBFF3B6
:105150006F8F94F93000002807DB4209603200F0BD
:105160001F0C03FA0CF341F8223001F015F8274B1D
:1051700094F930101B6853F8313000221A6094F90A
:10518000310010F1210F25D0002819DB42091E49FA
:105190000123203200F01F0003FA00F041F8220042
:1051A000BFF34F8FBFF36F8F94F93100002807DBF7
:1051B0004209603200F01F0C03FA0CF341F8223070
:1051C00000F0EAFF114B94F931101B6853F83130AD
:1051D00000221A60E0692146FFF75EFE2288ADF8E2
:1051E0000620202301A8ADF8043001F02FF800209C
:1051F00002B010BD072002B010BD0120F8E7012069
:10520000704700BF4344415200E100E0C4A40000E5
:105210001AB310B4044640B3CB1CDBB21E2B2AD801
:10522000002907DB1C4B008853F8200001238B402A
:1052300003402CD0194BA06A984210D1E36943B3C4
:105240001031E08833F81130B0F5004F9BB218D020
:1052500000205DF8044B1360704702207047002364
:1052600007205DF8044B13607047234601205DF86A
:10527000044B13607047002303205DF8044B136058
:1052800070471B0400205DF8044B13607047032037
:10529000DFE70120DDE700BF6C04FE1F43444152FD
:1052A0002DE9F0418AB0002800F07C810C460029ED
:1052B00000F078818B88C3F30E0323B103263046B8
:1052C0000AB0BDE8F081054606A8CDE90633CDE970
:1052D00008338E7800F09AFDA3794BB19DF8242015
:1052E000D70740F1648103F17C02D2B2012AE5D9EB
:1052F000E27912F0DF0FE1D1277A022FDED8A2780F
:10530000022ADBD8E17809B1052BD7D023690BB18C
:10531000022AD3D0012E00F05381B449A86A8842F2
:1053200000F055812B6223882B80ADF80230636931
:105330002A71AB61A388EB8085F82470237F85F800
:105340003230637F85F83330A37F85F83430E37FD4
:1053500085F8353094F82020A54F85F836200023B5
:105360002022CDE90633CDE90833ADF80020FB68F3
:1053700006A96846984706460028A0D1BDF81E3009
:105380009C49C3F382025200C3F3401308326B728C
:105390002A722088069BEB6151F820304BB9099B9B
:1053A0005E8841F820605B681B0C1B04334341F8A6
:1053B00020300C2A00F015810E2A40F00A81E37893
:1053C000032B02D0002B7FF479AF684600F010FF6A
:1053D000064600287FF473AF0690D7F8108006AA1F
:1053E00002216846C0479DF9180085F830002369FE
:1053F000002B00F0378110F1210F00F06D817E4B02
:105400001A68A37A00284FEA0313DBB2C0F26F8157
:105410007A4901EB000E4FEA501C8EF8003352F827
:1054200030300CF1200C1D6000F01F02012303FA44
:1054300002F241F82C20BFF34F8FBFF36F8F95F925
:105440003000002807DB4209603200F01F0C03FA2D
:105450000CF341F8223000F09FFE06AA03216846B3
:10546000C0479DF9180085F83100A378012B00F0A2
:10547000FE8010F1210F40F001814FF00008C5E9D6
:105480000488A5F80A8002A8CDE90288CDE904883D
:1054900000F0BCFC9DF808302222D90601920ED5FE
:1054A000CDE90688CDE90888FB6806A901A89847D8
:1054B000D0B9069B2B610123AB729DF808301A0707
:1054C0000FD50023FA680127CDE90633CDE908336B
:1054D0008DF8057006A901A8904728B9069BEF72C0
:1054E0006B61BDF80A306B802946E869FFF7D4FC90
:1054F0002388ADF80A300027202302A8ADF8083031
:10550000CDE90677CDE9087700F0CAFDEB691F8089
:105510005F821A88A17861F34E321A801A8867F385
:10552000C7121A80227A012A00F0DB803AB9198862
:1055300041F480711980198A62F30D211982DA8988
:10554000E17861F34202DA81A288D989A2F50042AA
:10555000B2FA82F2520962F3CF31D981E279D98964
:10556000A2F12002B2FA82F2520962F34511D98106
:10557000A2791A7306A800F049FC9DF82430C3F301
:1055800040025B072A733BD41AB1217B002900F04B
:10559000C0806B7A012B00F0DE80144B0022C5E93D
:1055A0000A328CE6012630460AB0BDE8F0811806C2
:1055B0007FF584AEE27912F0DF0F7FF47FAE9BE6D9
:1055C000208940F2011188427FF478AEA5E60826D2
:1055D00075E6102A7FF4F9AEE378042B3FF4F5AEBC
:1055E0006CE6E378022B7FF6F0AE67E64344415267
:1055F000BCA900006C04FE1FC4A4000000E100E090
:10560000EB6995F8321093F8E12161F3420283F8D7
:10561000E12193F8E12142F0100283F8E121012118
:10562000962000F089FDEB6995F8331093F8E1219D
:1056300061F3000283F8E12193F8E12195F832103B
:105640006FF3C30283F8E12129B193F8E12142F01D
:10565000080283F8E121012140F2DC5000F06CFDEA
:105660002A7B91E710F1210F3FF4F7AEC7E62369DB
:10567000002B3FF4FEAE10F1210F2DD0384B1A68ED
:10568000E37A00284FEA0313DBB239DB354901EB3B
:10569000000E4FEA501C8EF8003352F830300CF1F7
:1056A000200C1D6000F01F02012303FA02F241F8F2
:1056B0002C20BFF34F8FBFF36F8F95F93100002877
:1056C00007DB4209603200F01F0C03FA0CF341F8CB
:1056D000223000F061FDD0E6684600F0B7FD0B26F1
:1056E000EDE51A8A092161F30D221A8227E71E4986
:1056F00000F00F0C61440B7652F830301D60AAE6C2
:10570000194900F00F0C61440B7652F830301D60DF
:10571000DFE72846FFF79CFB074698B995F930006C
:1057200000F03AFD95F93030002BFFF632AF5A0900
:105730000C4803F01F036032012101FA03F340F823
:10574000223026E7684600F081FDE8692946FFF728
:10575000A3FB3E46B3E521462846FFF7CDFB1CE7F9
:10576000C4A4000000E100E0FCEC00E02DE9F043FF
:1057700087B0002800F014810E46002900F0108147
:10578000B04B826A9A42044640F0FA80C769002F03
:1057900000F00681AC4B028853F822500B6845F0AC
:1057A0004055002B00F0F680E94333EA050540F050
:1057B000F1803A88C2F34132012A726800F0E58034
:1057C000002A40F0E780002302A8CDE90233CDE9AA
:1057D000043300F01BFB9DF808108B0704D472689B
:1057E00012F0405F40F0E180336813F040520BD07C
:1057F0003888000600F1CE80490700F1508197F803
:105800007A20002A40F0C6803A7B520740F0D080D0
:10581000F168002940F0BE80327C002A40F083818C
:10582000726898B2B88090B2B88288B23881180C89
:105830001343090C120C13F0405FF880FA8279814F
:1058400062D0002302A8CDE90233CDE904330193ED
:1058500000F0DCFA7D4B9DF810009B6901A9984788
:10586000019B7B4A934240F2A080002840F09D803B
:1058700002F1864202F5492202F64442A2FB0338B5
:10588000039B4FEA984803FB08F8724BA3FB0838C8
:105890004FEA9818A8F10703F82B00F286803368C6
:1058A000DA0000F1EC807268D00016D55FFA88F259
:1058B00087F8DE20A27A012A00F024817A8A6FF329
:1058C00008227A827A8A42F480627A82F268798A3D
:1058D000C2F3007262F30001798213F0005300F00A
:1058E000BD805FFA88F887F8DF807B8A43F4007315
:1058F0007B827B8A6FF3CB237B82F3687A8AC3F344
:10590000407363F341027A82337C727C1B0203F49E
:10591000E0631343A7F86630338948F201029342EB
:1059200056D0A7F880302379022B27D0D4F81C90CA
:10593000B9F80030C3F34138B8F1010F00F0BC8072
:1059400094F9300010F1210F13D000F025FC94F9E8
:105950003020002A0DDB53099B0003F1604303F55F
:105960006143012102F01F0201FA02F2C3F8802113
:105970001A60328948F201039A4223D033680AE060
:105980000725284607B0BDE8F0831AB11943114234
:105990003FF419AF03252846E36207B0BDE8F08362
:1059A0000125284607B0BDE8F08333680325F2E7F8
:1059B0007268F1681A4331EA0202EBD100297FF4E0
:1059C0002BAFE7E748F201023368A7F88020E2E74F
:1059D0002379022BF6D0D4F81C80B8F80030C3F33A
:1059E0004133012BACD1B8F8102042F03F02A8F8A7
:1059F000102094F9310010F1210F1CD0002818DB81
:105A00004109DFF854C000F01F02203103FA02F20E
:105A10004CF82120BFF34F8FBFF36F8F94F9310003
:105A2000002806DB4209603200F01F018B404CF871
:105A3000223000F0B1FBB8F800306FF38613A8F8FD
:105A400000307DE7434441526C04FE1F64A3000014
:105A50003F420F00D34D621000E100E072689200F7
:105A60007FF552AF5FFA88F887F8DF807A8A63F3B0
:105A700049227A827B8A43F400637B823DE75FFAA6
:105A800088F287F8DE20A27A012A3BD07A8A42F493
:105A900080727A827A8A6FF38A227A8216E7B2F16A
:105AA000405F3FF477AF33F070427FF473AF2279F9
:105AB000002A3FF4A9AE6DE794F9310010F1210FEF
:105AC00012D000F069FB94F93130002B0CDB5A093D
:105AD000920002F1604202F5614203F01F0308FAEE
:105AE00003F3C2F880311360B9F8003043F040038B
:105AF000A9F80030B9F810300A2262F30503A9F8BA
:105B000010301DE700222D4BCDE90222CDE9042201
:105B10002222DB68019202A901A89847002836D00A
:105B20003368054637E7002302A8CDE90233CDE903
:105B3000043300F06BF99DF80830D8077FF535AFD6
:105B4000317C07293FF631AF737C032B7FF62DAFF5
:105B5000B7F800C0D6E90032CCF3413CBCF1010FEC
:105B600001EA030001EA020E22D081427FF412AF63
:105B70003988090608D4BEF1000F03D03189002905
:105B80007FF408AFF1684CE60028F4D002E701A8E2
:105B900000F086FA22693368117841F080011170B3
:105BA000117841F010011170D9007FF587AE6DE7D3
:105BB0008142DDD07145DBD0ECE600BFBCA900001E
:105BC000034668B1074AB2F80011C1F30001197029
:105BD00092F800316FF30003002082F80031704723
:105BE0000120704700C00140104991F8043143F092
:105BF000010381F80431B1F804318446D8070AD58D
:105C00004FF0FF3300E07BB1B1F80421D20703F17C
:105C1000FF33F8D443B1054A92F800316CF3000326
:105C2000002082F8003170471420704700C0014006
:105C300070B5264D82B02B689847AE6800210320CE
:105C4000B047234AEC69019240F20313ADF80030EB
:105C50000320A047B0F5C97FFAD169460520B047B7
:105C600028B140F29113984201D000BEEC69194A64
:105C700092F8003143F0010382F800310520A0477B
:105C8000B0F5C97FFAD10123022204218DF8021058
:105C90002C698DF806308DF800308DF801208DF8D4
:105CA00003308DF805208DF8043069460520A047A3
:105CB00000B100BE2B6E04209847AB6A01209847C4
:105CC000EB6A9847AB6D984702B070BD64A30000C3
:105CD0000000A04100C0014000B5064B83B0002287
:105CE0009B69019201A906209847019803B05DF8CD
:105CF00004FB00BF64A300000378002B4AD1416875
:105D00003A4A91421ED83A4AF12010B41071107AE2
:105D1000384C63F382001072107A63F3C300107280
:105D2000107A63F341001072A1424FF0F00010713D
:105D300047D83149314A0B7092F81C315DF8044B59
:105D4000002070472A4B2E48F1221A711A7A42F02D
:105D500004021A721A7A42F008021A721A7A4FF082
:105D6000F00C42F0020281421A7283F804C024D976
:105D7000214A02231370214991F81C2102F00702E5
:105D80009A4218D291F81C2163F3020281F81C2177
:105D900000207047012B0ED1184A174992F81C3188
:105DA000097803F00703994205D092F81C3161F39A
:105DB000020382F81C31002070470F4A0123137040
:105DC000D9E70D4A0D490123137091F81C2102F007
:105DD00007029A42B2D291F81C215DF8044B63F39A
:105DE0000202002081F81C21704700BF0087930346
:105DF00000200040005A62027404FE1F00C00140EF
:105E000000B4C40400230370704700BF0278037B12
:105E100022F01F0242F01B0223F007034FF47A6CBA
:105E200041F2360143F0010302700222C0E901127F
:105E3000A0F802C0037370470378002223F0030325
