:100000001822002005510000754B0000015100002E
:1000100001510000015100000151000000000000EA
:10002000000000000000000000000000015100007E
:100030000151000000000000E96B0000916C00001D
:1000400041370000213800009D380000F50600000F
:10005000590A000039080000FFFFFFFFFFFFFFFF04
:10006000FFFFFFFFFFFFFFFFFFFFFFFFFFFFFFFFA0
:10007000FFFFFFFFFFFFFFFFFFFFFFFFFFFFFFFF90
:10008000FFFFFFFFFFFFFFFFFFFFFFFFFFFFFFFF80
:10009000FFFFFFFFFFFFFFFFFFFFFFFFFFFFFFFF70
:10040000FFFFFFFFDF8EFFFFFCFF0F00FFFF0F006E
:10041000FCFF0F00FFFF0F00FCFF0F00FFFF0F00AE
:10042000FFFFFFFFFFFFFFFFFFFFFFFFFFFFFFFFDC
:10043000FFFFFFFFFFFFFFFFFFFFFFFFFFFFFFFFCC
:10044000FFFFFFFFFFFFFFFFFFFFFFFFFFFFFFFFBC
:10045000FFFFFFFFFFFFFFFFFFFFFFFFFFFFFFFFAC
:10046000FFFFFFFFFFFFFFFFFFFFFFFFFFFFFFFF9C
:10047000FFFFFFFFFFFFFFFFFFFFFFFFFFFFFFFF8C
:10048000FFFFFFFFFFFFFFFFFFFFFFFFFFFFFFFF7C
:10049000FFFFFFFFFFFFFFFFFFFFFFFFFFFFFFFF6C
:1004A000FFFFFFFFFFFFFFFFFFFFFFFFFFFFFFFF5C
:1004B000FFFFFFFFFFFFFFFFFFFFFFFFFFFFFFFF4C
:1004C000FFFFFFFFFFFFFFFFFFFFFFFFFFFFFFFF3C
:1004D000FFFFFFFFFFFFFFFFFFFFFFFFFFFFFFFF2C
:1004E000FFFFFFFFFFFFFFFFFFFFFFFFFFFFFFFF1C
:1004F000FFFFFFFFFFFFFFFFFFFFFFFFFFFFFFFF0C
:10050000800400208A003000840400208D00301810
:10051000880400208E003020400500207401141053
:100520004405002076011420480500207501142898
:10053000200000002F0000002F0001000C0001002F
:100540001100000030000000240000002400010021
:100550002500000025000100130000001700000026
:10056000230000002100000021000100070000001E
:10057000070001000700020007000300120000004E
:10058000080000000B000000040000002B00000029
:100590002B0001002B0002002B0003002B000400A5
:1005A0002B0005002B0006002B0007002B00080085
:1005B0002B0009000600000006000A0006000B00E0
:1005C00006000C0006000D0006000E0006000F00DD
:1005D00006000100060002000600030006000400F9
:1005E00006000500060006000600070006000800D9
:1005F00006000900150000001500010015000200AA
:10060000310000002A00000010000000030100007B
:1006100003000000030001000F0000000D000000B7
:10062000260000002D0000002C0000002C0001001E
:100630002C0002002C000300320000002800000003
:100640001800000014000000140001001400020053
:10065000140003001400040014000900340000001A
:10066000190000001600000016000100360000000E
:1006700036000100220000003300000029000000C5
:1006800010B5054C237833B9044B13B10448AFF3CC
:1006900000800123237010BD3C02002000000000F8
:1006A000A490000008B5034B1BB103490348AFF306
:1006B000008008BD0000000040020020A49000005F
:1006C000416BA9B190F8513070B5044603F0FF05B5
:1006D0006BB98A68B0F8443056680868E16B2A46FE
:1006E000B047226CC4E91152012384F8573070BD21
:1006F000704700BF30B583B0EFF3058005F048FECA
:10070000EFF30383A3F1100040B2019304F0D0FB98
:10071000EFF3038246490192A2F1100309685BB22C
:1007200051F833301D68EC6AA37AD807C3F300028E
:1007300026D495F84E1095F85030994252D195F83C
:100740005730002B68D16B6C9BB92379590707D4BC
:100750004FF4966301E0013B02D022795207FAD5AB
:1007600095F85230002B60D052220123E27285F8B6
:100770005430EFF3058003B0BDE8304005F006BE0D
:1007800095F85730002BF4D095F938300022934279
:1007900085F857200DDB5A0926480121203203F045
:1007A0001F0301FA03F340F82230BFF34F8FBFF36A
:1007B0006F8FA378DBB28DF80430A378DBB28DF8AD
:1007C0000430A378DBB28DF804309DF80430A378B0
:1007D0006FF38613A370EFF3058003B0BDE83040DC
:1007E00005F0D4BD2846FFF76BFF95F84C20237920
:1007F000DB09FCD0E27095F84F2095F85030013AB3
:10080000013385F84F2085F85030EFF3058003B0B1
:10081000BDE8304005F0BABD85F85720EFF30580FC
:1008200003B0BDE8304005F0B1BD5423E372A0E74A
:100830000888000000E100E0F0B583B0EFF3058028
:1008400005F0A6FDEFF30383A3F1100040B201937E
:1008500004F02EFBEFF303827D490192A2F1100315
:1008600009685BB251F833301D68EC6AA37ADF0780
:1008700004D5237BD807C3F300011BD523795E077A
:1008800007D44FF4966301E0013B02D0227952076E
:10089000FAD595F851305BBB0021012254236964DD
:1008A00085F85320E372EFF3058003B0BDE8F04014
:1008B00005F06CBD95F8502095F84E30934239D034
:1008C00095F851308BBB95F84C102379DB09FCD09F
:1008D000E17095F84F300132013B85F84F3085F8D3
:1008E0005020EFF3058003B0BDE8F04005F04EBDA9
:1008F00095F85630002BCFD1AB6CEA6B6179D154AF
:10090000D5E9112395F85210013A0133C5E91123B5
:10091000F1B152220123E27285F85430EFF30580E1
:1009200003B0BDE8F04005F031BD022ACBD152231F
:10093000E372B8E795F8583003F0FF0213B185F879
:100940005810B0E76B6C63B995F85230002BE0D1CA
:100950005423E372EFF3058003B0BDE8F04005F0E7
:1009600015BD95F8511059B9A96CEA6B013B525C61
:100970000131C5E911312379DB09FCD0E27092E73E
:1009800095F8561069B9AB6CEA6B6179D154D5E929
:100990001132013B0132012BC5E9113215D0FF2282
:1009A000E9E72E6B85F856203EB1696B29B195F8C1
:1009B000512012B12A6C022A0DD8012B05D0A37A3E
:1009C0006FF34513FF22A372D5E7A37A43F0200308
:1009D000FF22A372CFE795F93830002B09DB1D48C1
:1009E0005F09012203F01F0302FA03F340F82730E6
:1009F0002A6C0868931EA278D2B28DF80420A278DF
:100A0000D2B28DF80420A278D2B28DF804209DF8DD
:100A10000420A27842F04002A2708A689BB2576814
:100A2000EA6B0021B847B2682B6C57683068002227
:100A3000023B11469BB2B8472B6C01220221023BBC
:100A400085F85720C5E9111385F85820B7E700BF8E
:100A50000888000000E100E030B585B0EFF30580C4
:100A600005F096FCEFF3038255490192A2F11003C1
:100A700009685BB251F833301D68EC6AE37A6FF3B2
:100A8000C303E372E37AC3F3C0038DF80330E37A60
:100A9000C3F3C0038DF80330E37AC3F3C0038DF8CA
:100AA00003309DF8033095F85330002B54D195F85E
:100AB0004E3095F8502093423AD16B6CEBB995F8D3
:100AC000511095F85420002914BF02210321002A57
:100AD0005FD0E372EB69002B4CD00022286AADF89E
:100AE0000D208DF80F202A6C8DF80C10CDE9010235
:100AF00001A89847012385F85530EFF30383A3F14C
:100B0000100040B2019304F0D3F9EFF30382A2F195
:100B100010035BB22B490192C03351F8233001938B
:100B2000019BEFF3058005B0BDE8304005F02EBC19
:100B300022BB012B34D095F84D100023E3722379AA
:100B4000DB09FCD0E17095F84F300132013B85F8AC
:100B50004F3085F85020D0E7EA69F023E3724AB1BC
:100B6000D5E91031286A5B1A0121CDE9010303910F
:100B700001A89047012385F85530BEE795F851301C
:100B8000002BBAD0022AB8D195F84D1041F00101DE
:100B9000D3E7F023E372A37803F0CF03A37099E7C0
:100BA0002846FFF78DFD95F84E30012B18BF95F8BC
:100BB0005020C0D195F84C1095F85020BDE700BFEB
:100BC00008880000006000400B4B10B41C68B4EBB8
:100BD000102F03D803205DF8044B704749B15B68C0
:100BE0005DF8044B020A520104330020D3580B80F5
:100BF00070470120EFE700BFF8010020D2B10E4B93
:100C000010B41C68B4EB102F4FEA102C03D803204B
:100C10005DF8044B70475B685DF8044B22EA010005
:100C20004FEA4C1C08330A4042EA00424CF80320C9
:100C30000020704703207047F801002012B3124BC8
:100C400010B41C68B4EB102F4FEA102C03D803200B
:100C50005DF8044B70475C684FEA4C1C02EA0103E4
:100C600054F80C00034361EA02019AB2114054F8AF
:100C70000C20120C1204114344F80C1000205DF8F3
:100C8000044B704703207047F80100200B4B10B451
:100C90001C68B4EB102F03D803205DF8044B704799
:100CA00051B15B685DF8044B020A52010433002025
:100CB000D3581B0C0B8070470120EEE7F801002091
:100CC00010B40D4C2368B3EB102F03D803205DF84C
:100CD000044B7047002AF9D063685DF8044B4FEA73
:100CE000102C083322EA010003EB4C130A4042EABD
:100CF00000425A6000207047F801002020B14FF0F8
:100D000002230360002070470120704738B5048833
:100D1000002C4DD043680021043303EBC40040F2A3
:100D200002450C4640F2034C40F2044E0FE062458F
:100D300030D153F8042C02F0B852B2F1807F14BFC6
:100D400041F0020144F002040833834211D01A88B2
:100D5000AA42ECD153F8042C02F0B852B2F1807FD1
:100D600003F1080314BF41F0010144F00104834280
:100D7000EDD1C943CDB2012004F072F90D4B93F8C7
:100D8000BB2414432C4083F8BB440120BDE8384009
:100D900004F036B97245D7D153F8042C02F0B8529A
:100DA000B2F1807F0CBF44F0040441F00401CBE7B2
:100DB000FF25E0E700E00140012958D82E4B1A68D2
:100DC000B2EB102F70B44FEA102409D99A68C0B260
:100DD00052F8245000F110060122B2402A4202D1FA
:100DE000032070BC704700EB0410D3E9035454F89F
:100DF000203000293DD043F00401204E0E40EFF397
:100E0000108C012383F310881D4B1A8892B212B9FB
:100E1000EA704022EA701A88013292B21A808CF38A
:100E2000108811F4803F54F8202007D022F480323B
:100E300044F82020134A0A4044F8202044F8206057
:100E4000EFF31081012282F310881A8892B21AB14E
:100E50001A88013A92B21A801B889BB213B9802279
:100E6000EB70EA7081F31088002070BC704703209B
:100E7000704723F00401C0E7F8010020D5FC011FF2
:100E800058020020D5FC001F70B582B00446002532
:100E900001A80E468DF8045003F04EFE9DF8043074
:100EA000DB0713D5202C0ED8012E0CD8094BDB689C
:100EB0001A780CBF22EA04041443284604F03004D4
:100EC0001C7002B070BD032002B070BD062002B0DD
:100ED00070BD00BFF8010020002861D043682DE9F3
:100EE000F0470646002B58D0FFF710FF3388002B41
:100EF00050D02C4F2C4A4FF0000C4FF0010E4FF009
:100F0000400A4FF080097168F8681FFA8CF401EB11
:100F1000C40351F834509B883C69190ADBB203EBD7
:100F20000113EFF310888EF31088118889B211B97C
:100F3000C17080F803A01188013189B2118088F353
:100F4000108815F4803F54F8231007D021F4803125
:100F500044F8231025F4803144F8231044F823503A
:100F6000EFF310818EF3108813889BB21BB11388A6
:100F7000013B9BB2138013889BB213B9C37080F8F6
:100F8000039081F3108831880CF1010C1FFA8CF367
:100F90009942B8D80020BDE8F0870120BDE8F0876D
:100FA00001207047F80100205802002000282ED0B0
:100FB00070B5436886B00446002B2AD01649174DF9
:100FC000CE68092200230192CDE90233CDE9043332
:100FD00002A901A8B0470A238DF80430029B6B6078
:100FE000059BAB6002A9BDF80C302B6001A8B0478F
:100FF000012302A98DF8053001A8029B2B61B0479F
:10100000029BEB602046FFF767FF06B070BD012032
:101010007047012006B070BD0C8B0000F801002065
:1010200030B4124C2268B2EB102F0CD9A268030A1C
:10103000C0B252F8235000F1100C012202FA0CFC4D
:101040001CEA050F02D1032030BC704751B1226960
:1010500000EB031330BC52F82330C3F340030020ED
:101060000B707047104630BC704700BFF80100207D
:1010700030B4154C2368B3EB102F0CD9A368020AC7
:10108000C0B253F8225000F1100C012303FA0CFCFB
:101090001CEA050F02D1032030BC704789B1646897
:1010A0005201043403FA00F0145982B200EA1440E9
:1010B000824214BF0020002030BC0CBF0B700870AF
:1010C0007047184630BC7047F8010020174A10B529
:1010D0001468B4EB102F0DD9030A9468C0B254F809
:1010E000234000F1100C4FF0010E0EFA0CFC1CEA2C
:1010F000040F01D1032010BD7145FBD852680CD0FC
:10110000083202EB43130EFA00F0596841EA00413D
:10111000090C09045960002010BD083202EB43138A
:1011200081405868014389B2F4E700BFF80100200C
:10113000012921D830B4124C2368B3EB102F4FEAA9
:1011400010220BD9A368C0B253F8225000F1100C42
:10115000012303FA0CFC1CEA050F02D1032030BC6A
:10116000704703FA00F049B183B261685201083157
:10117000002030BC53507047032070470304F4E74D
:10118000F80100202DE9F0412E4D2B68B3EB102F14
:1011900084B00CD9AB68060AC7B253F8263007F101
:1011A00010024FF0010808FA02F21A4203D103209C
:1011B00004B0BDE8F08102ABADF80C0068460C4607
:1011C00002910193ADF80080FFF7A0FDD5E903512E
:1011D00007EB0613EFF3108688F310881A4802888D
:1011E00092B212B9EA704022EA700288013292B2D9
:1011F000028086F31088E60351F8232007D522F4F5
:10120000803241F8232024F4803241F8232041F831
:101210002340EFF31082012383F3108803889BB2ED
:101220001BB10388013B9BB2038003889BB213B9B7
:101230008021EB70E97082F31088002004B0BDE8D3
:10124000F08100BFF801002058020020034B043059
:101250001B6823F820100020704700BF5C020020AC
:10126000034B1A68031D002022F82300704700BFBB
:101270005C020020034B1A68137843F080030020BF
:10128000137070475C020020034B1A6813786FF3E9
:10129000C7130020137070475C02002020B14FF08C
:1012A00002230360002070470120704770B586B0AC
:1012B000002830D01A4A00230B21CDE90113CDE9D3
:1012C0000333D2680593044602A901A89047054656
:1012D00010B1284606B070BD124E029B336001A8C3
:1012E00003F066FD62685AB1A368306803EB820CB4
:1012F000598813F8042B04329C4520F82210F7D1AA
:101300002378002BE5D032681378284643F0800319
:10131000137006B070BD0125284606B070BD00BF31
:101320000C8B00005C02002060B1012808D1094B41
:101330001B68002040214122187119711A717047F1
:1013400001207047034B1B6840214122987099701F
:101350009A7070475C020020062070470620704794
:1013600020B14FF002230360002070470120704736
:1013700032490B6893F8282002F03003102B0CD070
:10138000202B02D000238B61704790F82B302C4A21
:101390009B0932F813305BB97047038D10B403F02A
:1013A0000303284C34F8133003BB5DF8044B70473B
:1013B00007EE903AB8EE677AD1ED047A90F82B30C8
:1013C000F8EE676A03F01F03C6EE877A07EE103A5D
:1013D000B8EE477AF7EE006A37EE267A67EE877A3C
:1013E000FCEEE77A17EE903A8B617047520622D5F1
:1013F000028D12F0100F0CBF0322002201EB8202BB
:1014000007EE903AD2ED016A038D5DF8044BF8EED9
:10141000677AF8EE666AC3F3052386EEA77A01338E
:1014200007EE903AFAEEEF7A67EE277AFCEEE77A6B
:10143000C1ED067A70470322E0E700BF0C020020EE
:101440001C8700002C87000051B3062810B429D057
:1014500005280AD004282DD0D8B1012842D002286E
:1014600038D003282ED0032010E0224C0023E0695E
:101470000B60026AC2F3027290F8263003F0070391
:1014800004EB830300205B68D3400B605DF8044BE2
:101490007047184C0860E069026AC2F30232EBE759
:1014A00001207047134C0023E0690B60026AC2F30D
:1014B0000262E1E70F4C0023E0690B60026AC2F3AD
:1014C0000242D9E70B4C0023E0690B60026A02F08C
:1014D0000702D1E7074C0023E0690B60026AC2F300
:1014E0000212C9E7034C0023E0690B60026AC2F3F1
:1014F0000222C1E70C02002038B5084BDD69044622
:10150000002003F0ADFD95F8303064F300030020B7
:1015100085F8303003F074FD002038BD0C02002047
:10152000084B10B5DC69002003F09AFD94F85230A6
:1015300043F00103002084F8523003F061FD0020E5
:1015400010BD00BF0C020020084B10B5DC69002064
:1015500003F086FD94F852306FF30003002084F806
:10156000523003F04DFD002010BD00BF0C020020E2
:10157000084B10B5DC69002003F072FD94F83E3092
:1015800043F08003002084F83E3003F039FD002052
:1015900010BD00BF0C020020084B10B5DC69002014
:1015A00003F05EFD94F83E306FF3C713002084F81B
:1015B0003E3003F025FD002010BD00BF0C020020CE
:1015C00010B5002003F04CFD134BDB6993F850205D
:1015D00042F0800283F8502093F85020D20915D1B0
:1015E0000E4C93F85020D20904F1FF3406D1002CA0
:1015F000F7D1204603F004FD142010BD002003F0B5
:10160000FFFC002C14BF0020142010BD002003F0AC
:10161000F7FC002010BD00BF0C020020FFFF0F00F0
:1016200010B5002003F01CFD134BDA6992F850301E
:101630006FF3C71382F8503092F85030DB0904D1B1
:10164000002003F0DDFC002010BD0C4C92F850305F
:10165000DB0904F1FF3407D1002003F0D1FC002C9A
:1016600014BF0020142010BD002CEFD1204603F041
:10167000C7FC142010BD00BF0C020020FFFF0F00AC
:1016800030B583B003F0DEF94FF0E02301901D691F
:10169000186910F0020028D0DDED017A164CF8EE42
:1016A000677AF7EE006A86EEA77A0020186194F850
:1016B0002320D1B2DFED117ADFED116A27EE277A10
:1016C000C6EE877AFCEEE77A17EE902A013AB2F17D
:1016D000807F0CD25A61F02284F8232001F0F001BF
:1016E000072298611A6184F8231003B030BD1220DC
:1016F0001D6103B030BD00BF00ED00E0002474495F
:1017000000401C4608B1FFF7BBBF0320704700BF75
:10171000052827D0144B042870B5DD6904460E4611
:1017200006D195F88034DB0702D54FF4C87070BD40
:10173000002003F095FC95F83E306FF3C71385F851
:101740003E3095F83E3066F3061385F83E3095F846
:101750003E3064F30203002085F83E3003F050FC75
:10176000002070BD032070470C02002038B5002413
:1017700002F0070261F30E349DF810C09DF81410BA
:1017800062F30A2463F306140E4B6CF302041B6825
:1017900061F312449DF8181093F82A3061F31E7417
:1017A0009DF81C10054661F31A645B0748BF62F39D
:1017B0001244002003F054FC2C620020BDE83840A5
:1017C00003F01EBC0C02002010B5174BDC6994F826
:1017D0004120D00706D494F84130DB074FF00000D9
:1017E00010D410BD1A6894F8263092F828205106BB
:1017F00003F0070313D4052B01D0032BEBD140F2E8
:10180000971010BD03F02CFC94F841306FF30003E7
:10181000002084F8413003F0F3FB002010BD228D3E
:10182000D206EAD4E7E700BF0C020020062070478A
:10183000062070470620704706207047024630B3E6
:1018400029B3144BDB6993F826C0CCF3020C82F861
:1018500000C01A6AC2F302320A701A6AC2F3022284
:101860004A701A6AC2F302128A701A6AC2F302023A
:10187000CA701A6AC2F302420A711A6AC2F3027289
:101880004A711B6AC3F3026300208B717047012009
:10189000704700BF0C0200202DE9F84300295AD000
:1018A000002874D03D4DEB6993F8AA4014F0010470
:1018B0006DD193F8A020196A1C6A1F6A2E68C7F3BD
:1018C000021C1F6A07F0070E1F6AD3F820901B6ADC
:1018D000C3F30268B36802F00302C1F30231C4F338
:1018E0000224C7F30247C9F3027953B3032A28D16C
:1018F00033698B422DD8A3422BD8634529D8734531
:1019000027D84B4525D8BB4223D8434521D801468B
:10191000012003F027F9EC69002003F0A1FB94F803
:10192000403043F0800384F8403094F8403043F076
:101930000103002084F8403003F062FB0020BDE882
:10194000F883F368002BE2D0022AE0D173698B425E
:10195000D1D90520F3E7114BDD6995F84130DB075C
:1019600018D408460C4603F07BFB95F8403064F32E
:10197000000385F8403095F8403064F3C7132046E3
:1019800085F8403003F03CFB2046BDE8F883012099
:10199000BDE8F8834FF4CB70BDE8F8830C0200205B
:1019A00070B5434D88B0284603F0CEF8414A002375
:1019B0000321CDE90433CDE906330191D26804A9AE
:1019C00001A89047049CEC614FF6FF73029394F8D2
:1019D0003630DE0754D5002003F042FB94F8A530E2
:1019E000052262F3020384F8A530002003F008FB0F
:1019F0002B68EC69D3E906232B612F4BAB600020E9
:101A00004FF400434FF6FF766A60A861EB606B61AC
:101A1000029603F025FB94F8803443F0010384F828
:101A20008034002003F0ECFAEC69039694F88034DB
:101A3000D80714D5039BFBB12B68226A93F8225078
:101A400094F82630002003F00BFB94F88034DB0779
:101A500027D4002003F0D4FA002008B070BD039B07
:101A6000002BE7D0039B013B039394F88034DA0703
:101A7000F5D5039B002BDFD14FF4CD7008B070BDBE
:101A800094F83C30D90708D4029B33B1029B013B48
:101A9000029394F83C30D907F6D5029B002B9AD1DB
:101AA000EAE794F8813423EA050384F88134D0E727
:101AB0000C0200200C8B000000127A00F8B53B4BA2
:101AC0001D5CFF2D61D03A4F002003F0C9FAFB697D
:101AD000002093F8506003F0C3FAFA6992F850308E
:101AE0006FF3C71382F8503092F85030DB094FEA99
:101AF000D61642D1002003F083FAFA6992F85030EA
:101B000065F3030382F8503092F8503003F00F036E
:101B10009D4243D0274C01E0002C38D092F8503041
:101B200003F00F039D4204F1FF34F5D146B90020C4
:101B300003F066FA002C14BF00201420F8BD1D4CE1
:101B4000002003F08DFAFB6993F8502042F08002E8
:101B500083F8502093F85020D2090AD193F85020EE
:101B60001448D20905D1013804D093F85020D20985
:101B7000F9D0002003F044FAD9E70E4992F850302A
:101B8000DB09B7D00139F9D1B4E70320F8BD002E45
:101B9000D6D1304603F034FA1420F8BD002ECED151
:101BA000304603F02DFA3046F8BD00BF0C87000028
:101BB0000C020020FFFF0F0005292ED8DFE801F0FE
:101BC0000A11181F260390F82A0000F0010080F087
:101BD0000100704790F8360000F0010080F001002D
:101BE000704790F8380000F0010080F00100704765
:101BF00090F8900400F0010080F00100704790F828
:101C0000320000F0010080F00100704790F880047D
:101C100000F0010080F0010070470020704700BF15
:101C2000052867D870B5554D0446E86990F8263008
:101C300003F007039C4282B020D0052B11D090F80E
:101C40002A30DB070DD5012C1CD190F84030DB0980
:101C500078D12146FFF7B0FF002866D1002002B0FE
:101C600070BD2B6893F828305E0669D5038D13F09C
:101C7000100F0CBF032300239C42E4D140F29110CB
:101C800002B070BD2146FFF797FF0028E6D0032C75
:101C9000EE693CD0052C07D196F83C309B0654D415
:101CA00040F2931002B070BD34BB96F83C30D907B7
:101CB000F6D5204603F0D4F996F8363043F0010308
:101CC00086F83630002003F09BF94FF6FF7301933E
:101CD00004E0019B43B1019B013B0193E86921466C
:101CE000FFF76AFF0028F4D1019B002BB6D14FF417
:101CF000CD70B4E703207047002003F0B1F9631EF4
:101D0000042BDFD8DFE803F015320A2B240096F805
:101D10003C301A07C4D5002003F0A2F996F83230FF
:101D200043F0010386F83230CCE70020EE6903F07F
:101D300097F996F8383043F0010386F83830C1E758
:101D4000032399E740F2951089E7002003F088F912
:101D500096F82A3043F0010386F82A30B2E796F865
:101D6000803443F0010386F88034ABE796F8903472
:101D700043F0010386F89034A4E700BF0C02002072
:101D800005281DD808B5431E012B014608D9042893
:101D900006D068B1032815D005281FD0002008BD43
:101DA000194BD869FFF708FF38B140F2911008BD10
:101DB000154AD069FFF700FFF0B94FF4C87008BDAD
:101DC00003207047104AD069FFF7F6FE0028F4D0D0
:101DD000D36993F83C301B070BD512E00A4AD0694F
:101DE000FFF7EAFE0028E8D0D36993F83C30990663
:101DF00007D440F2931008BDD36993F83C30DA075A
:101E0000F7D54FF4C97008BD0C02002030B583B07F
:101E10004FF6FF730446012001930D4603F020F9AD
:101E200000230DF103008DF8033002F091FD94F8CA
:101E3000AA30D80605D494F8A030D906C3F300120E
:101E40000AD5019B013B0193019B002BEFD101209F
:101E500003F0D6F803B030BD94F8AA304FF6FF7106
:101E600062F3000384F8AA30019102E0019B013B78
:101E7000019394F8AA30DA0603D494F8A030DB0674
:101E800002D5019B002BF1D194F8A030042D0CBF9A
:101E900043F0030365F3010384F8A0304FF6FF73AA
:101EA000019302E0019B013B019394F8AA30D8060C
:101EB00003D494F8A030D90602D5019B002BF1D1B0
:101EC00094F8AA30042D0CBF43F001036FF3000314
:101ED00084F8AA304FF6FF73019302E0019B013BA7
:101EE000019394F8AA30DA0603D494F8A030DB0604
:101EF00002D5019B002BF1D19DF8030002F03CFDBF
:101F0000012003F07DF803B030BD00BF0528184B59
:101F100010D0042817D0022815D01A68906888427B
:101F200009D3D86990F82AC01CF0010F03D003210F
:101F3000FFF76CBF1A6852688A4200D27047D869AE
:101F40000121FFF763BFD86990F82A20D207E4D5B2
:101F500090F83220D207E0D590F83620D207DCD5B1
:101F600090F83820D207D8D50421FFF74FBF00BF23
:101F70000C0200202DE9F041052888B02BD80C4632
:101F8000002900F0AE800B788A79934223D34978F8
:101F9000994220D3E17899421DD8637993421AD3AC
:101FA0002179914217D30428074619D0674EF0696A
:101FB00090F8263003F007039F4228D0002F00F04E
:101FC000BC80032F40F0AE8090F83C301A071ED43E
:101FD00040F2931500E00325284608B0BDE8F081E3
:101FE000134340F0A880594EF06990F84030DB0967
:101FF00040F0A18090F8263003F00703042B06D0B0
:102000003946FFF7D9FD002800F09D80F069036A8A
:10201000036A036A036A036A036A036A0021C3F35B
:102020000268FFF7F3FE00238DF810308DF81C30A6
:1020300006EB8703A2795B68D3400593F3691A6ABC
:1020400093F8263003F0070306EB8303C2F3026222
:102050005B6804A8D340069302F004FD05460028FF
:10206000BAD1A379984541D2039363790293237936
:102070000193E3780093A37862782178F069FFF701
:1020800075FBF469284602F0EBFF94F8263067F3FD
:102090000203284684F8263002F0B2FFF3691A6A78
:1020A00093F8263003F0070306EB8306C2F30262BF
:1020B00073680121D34004A88DF81010069302F034
:1020C000D1FC0546002887D102F0BCFC204B01461C
:1020D0001860002837D03846FFF718FFFFF7D0FA0E
:1020E0007AE70125284608B0BDE8F081D6F81C80C3
:1020F00002F0B6FF98F8263067F30203284688F806
:10210000263002F07DFFA37903936379029323794C
:102110000193E3780093A37862782178F069FFF760
:1021200025FBBBE7052F7FF46BAF90F83C309B0697
:102130003FF56DAF4CE705254EE790F83C30D907E9
:102140003FF565AF44E74FF4C87545E70C02002042
:10215000B40200202DE9F0432DED028B042883B05A
:10216000044668D0012800F0488120BBB64DEE69D6
:1021700096F83C30DB0700F1528196F8AA30DF0771
:1021800000F1548196F8A030002002F069FF96F823
:1021900036306FF3000386F83630002002F030FF4F
:1021A0004FF6FF73EA690193052C1BD8DFE804F0B2
:1021B000343E392F2016032800F0CD8005285BD04F
:1021C000A14D0020EE6902F04BFFA31E032BE4D8C3
:1021D000DFE813F00C0105014400BA0092F82A3040
:1021E000DB0709D5019B3BB1019B013B0193DBE779
:1021F00092F88034D907F5D4019B002B14BF00203E
:102200004FF4CD7003B0BDEC028BBDE8F08392F8C3
:102210003230DD07E6D4EFE792F83630DB07E1D461
:10222000EAE792F89034DE07DCD4E5E792F838303C
:10223000DF07D7D4E0E7844D2B68EE6993F822706E
:10224000002002F00DFF96F88034D9070DD400204D
:1022500002F0D6FE0020EE6902F002FF96F880340C
:102260006FF3000386F8803497E796F8813423EA09
:10227000070386F88134EAE70E46002900F0EC8077
:10228000714D72782B6893F824109142C0F0DA8077
:1022900093F8262096ED017A07EE902AF8EE677AF9
:1022A000F4EEC77AF1EE10FA00F1CC8093F8253005
:1022B00007EE903AF8EE677AB4EEE77AF1EE10FAAC
:1022C00000F1C0803178032902D0002940F0BA80A3
:1022D000E869FFF771FC002800F0C080EF6997F80B
:1022E0003C30990600F19B8097F8AA30DA0700F19C
:1022F000B88097F8A0302B6896F8018093F82830C2
:1023000003F03003102B00F0E080202B00F0AF80B2
:10231000EF693846FFF72CF8D5E906302968026ADC
:10232000026A026A026A026A026A026A4968C2F3BF
:102330000262D3408B428CBF00210121FFF766FD72
:102340000020EE6902F08CFE96F82A306FF300034D
:1023500086F82A3021E73C4DEF6997F83C301E079C
:102360005DD497F8AA30D80770D497F8A0302B68BE
:10237000002093F8276093F8208093F8219002F0D2
:102380006FFE97F8133406FA09F25BB25A4002EA7C
:1023900008025340DBB287F81334002002F030FE0D
:1023A000EE69002002F05CFE96F813346FF386139A
:1023B00086F81334002002F023FEEE69002002F0BC
:1023C0004FFE96F8A230052262F3030386F8A2308E
:1023D000002002F015FE0020EE6902F041FE96F8A2
:1023E00032306FF3000386F83230D6E696F8903438
:1023F0006FF3000386F89034CFE6134DEE6996F83C
:10240000AA30DA0718D496F8A030002002F028FE8F
:1024100096F838306FF3000386F83830BDE640F2A6
:10242000931003B0BDEC028BBDE8F083304603216E
:10243000FFF7ECFCEE69A7E630460321FFF7E6FC68
:10244000EE69E2E70320DDE60C0200203846214673
:10245000FFF7DCFCEF698AE70120D3E64FF4CA708E
:10246000D0E638460321FFF7D1FCEF6943E72F4B55
:10247000002033F8188002F0F3FD97F82B3068F352
:10248000871387F82B30002002F0BAFD2B68EF6924
:1024900093F8283096ED018A03F03003102B2ED0EC
:1024A000202B7FF435AF002002F0DAFDFCEEC87A75
:1024B00097F82B2017EE903A013B63F3040287F85C
:1024C0002B20002002F09CFD22E7194B002033F85E
:1024D000189002F0C5FD3B8D69F301033B85002098
:1024E00002F08EFD2B6893F8283003F03003202B88
:1024F000BDD0102BEF697FF40CAF96ED018A002060
:1025000002F0AEFD78EE087A3A8DFCEEE77A002014
:1025100017EE903A013B63F30D223A8502F070FD0D
:102520002B6893F8283003F03003B9E714870000D4
:102530002487000005280AD8194A08B5431ED26925
:10254000042B27D8DFE803F00D21171C050003201A
:10255000704792F82A30DB0707D5BDE80840FFF73F
:10256000F9BD92F83830DB07F7D41046FEF700FFCC
:1025700040F2911008BD92F83230DB07EDD4F4E759
:1025800092F88034DB07E8D4EFE792F89034DB0769
:10259000E3D4EAE792F83630DB07DED4E5E700BFA4
:1025A0000C0200202DE9F04383B0012801910C4674
:1025B0001CD0022803D0002003B0BDE8F083052919
:1025C000164619D0DFF8A080D8F81C002146FFF786
:1025D000F3FA00283DD1311D2046FFF7BBFD00284E
:1025E000E9D040F291139842E5D0E5E7084603B000
:1025F000BDE8F043FFF714BB1279052A27D8DFF8AE
:1026000068801146D8F81C00FFF7D6FA30BB314677
:102610001046FFF79FFDA8B996F804904FF6FE7597
:1026200040F2931701E0013DC6D04846FFF7A8FBF2
:10263000B842F8D00028C7D06FF4C873C318012B74
:10264000C2D9B9E740F291139842E5D0B4E703202C
:10265000B2E7D8F81C00FEF78BFEACE7D8F81C00F8
:10266000FEF786FED8E700BF0C0200202DE9F047F8
:1026700082B0002854D0DFF85C810678D8F81C308E
:1026800090F815A093F826701A6A1A6A1A6A1A6ADC
:102690001A6A1A6A1B6AC37C8DF80230037D8DF8B2
:1026A0000130C37D8DF803308146837D007E8DF837
:1026B00000A0052E07F007078DF804308DF80500FF
:1026C00029D806F108036B4413F8083C012B22D0EB
:1026D000022809D199F80430052B1CD808336B4423
:1026E00013F8083C012B16D04A460521FFF75AFF84
:1026F0000446002849D140F29115E1B24A465046BD
:102700000134FFF74FFF08B1A84249D1052C0CD086
:102710001DF804A0F1E70324204602B0BDE8F087CD
:102720000124204602B0BDE8F0874FF6FE7540F266
:10273000931A01E0013DEFD03046FFF721FB5045F1
:102740000446F7D020B16FF4C8754319012BE3D8C4
:10275000042E27D0002509F10C013046FFF70AFCB2
:1027600004460028D8D1BE4206D007F108036B44C6
:1027700013F8083C012B0ED0002DCDD002F062F9E9
:1027800001463046FFF7C2FBC6E740F2911398427C
:10279000C2D10024AFE73846FFF742FA0028EBD059
:1027A0000446B9E7D8F81C3093F82A20D0070ED594
:1027B00093F83220D1070AD593F83620D20706D5F0
:1027C00093F8385005F0010585F00105C3E70125B0
:1027D000C1E700BF0C02002038B50446072927D8FE
:1027E000DFE811F08200A700D50008006B01180196
:1027F00099012900B0F840386FF38A23A0F84038D7
:10280000B0F8423859050CD541F2873501E0013D59
:1028100007D00121084602F01BFBB4F842385A05E4
:10282000F5D4B4F84238C3F380225B0540F1C68189
:102830004EF6612038BDB0F840386FF38A23A0F817
:102840004038B0F84038022262F30923A0F840383B
:10285000B0F8423803F4E063B3F5007F0FD041F2E3
:10286000873501E0013D0AD00121084602F0F0FA67
:10287000B4F8423803F4E063B3F5007FF2D1B4F862
:10288000423803F4E063B3F5007FD1D1052384F827
:102890005838B4F840386FF38A23A4F84038B4F8B5
:1028A00040386FF30923A4F84038B4F8423803F4F1
:1028B000E06373B141F2873501E0013D09D00121A8
:1028C000084602F0C5FAB4F8423803F4E063002B7E
:1028D000F3D1B4F8423803F4E063B3FA83F35B094D
:1028E000002BA5D0002038BD002380F85838B0F860
:1028F000402863F38A22A0F84028B0F8402863F308
:102900000922A0F84028B0F8423803F4E063002B15
:10291000DFD041F2873501E0013DDAD001210846E0
:1029200002F096FAB4F8423803F4E063002BF3D1D6
:10293000CFE7B0F840386FF38A23A0F84038B0F8FA
:102940004038022262F30923A0F84038B0F8423838
:1029500003F4E063B3F5007F0FD041F2873501E067
:10296000013D0AD00121084602F072FAB4F842385B
:1029700003F4E063B3F5007FF2D1B4F8423803F416
:10298000E063A3F50073B3FA83F35B09A8E7B0F83B
:1029900040386FF38A23A0F84038B0F8403802225C
:1029A00062F30923A0F84038B0F8423803F4E0633A
:1029B000B3F5007F0FD041F2873501E0013D0AD029
:1029C0000121084602F044FAB4F8423803F4E06307
:1029D000B3F5007FF2D1B4F84238B4F8403843F48C
:1029E0008063A4F84038B4F842385A050CD441F258
:1029F000873501E0013D07D00121084602F028FAA1
:102A0000B4F842385B05F5D5B4F8423858057FF57F
:102A10000FAF67E7B0F840386FF38A23A0F840386B
:102A2000B0F84038022262F30923A0F84038B0F829
:102A3000423803F4E063B3F5007F0FD041F28735ED
:102A400001E0013D0AD00121084602F001FAB4F884
:102A5000423803F4E063B3F5007FF2D1B4F84238B2
:102A600003F4E063B3F5007F7FF4E2AE032384F860
:102A70005838B4F840386FF38A23A4F84038B4F8D3
:102A800040386FF30923A4F84038B4F8423803F40F
:102A9000E063002B3FF41DAF41F2873502E0013DBA
:102AA0003FF417AF0121084602F0D2F9B4F84238DA
:102AB00003F4E063002BF2D10BE7B0F840386FF37A
:102AC0008A23A0F84038B0F84038012262F3092385
:102AD000A0F84038B0F8423803F4E063B3F5807FE3
:102AE0000FD041F2873501E0013D0AD001210846AF
:102AF00002F0AEF9B4F8423803F4E063B3F5807F36
:102B0000F2D1B4F8423803F4E063A3F58073B3FA6A
:102B100083F35B09E4E6B0F840386FF38A23A0F84A
:102B20004038B0F84038022262F30923A0F8403858
:102B3000B0F8423803F4E063B3F5007F0FD041F200
:102B4000873501E0013D0AD00121084602F080F9F5
:102B5000B4F8423803F4E063B3F5007FF2D1B4F87F
:102B6000423803F4E063B3F5007F7FF461AE0723DE
:102B700084F85838B4F840386FF38A23A4F8403802
:102B8000B4F840386FF30923A4F84038B4F8423859
:102B900003F4E063002B3FF49CAE41F2873502E082
:102BA000013D3FF496AE0121084602F051F9B4F818
:102BB000423803F4E063002BF2D18AE6B4F84038DF
:102BC00062F38A23A4F84038B4F8403862F309234A
:102BD000A4F84038B4F8423803F4E063002B3FF423
:102BE00078AE41F2873502E0013D3FF472AE01213B
:102BF000084602F02DF9B4F8423803F4E063002BE4
:102C0000F2D166E6002958D04FF0000C2DE9F04FC4
:102C1000151DE046571D4FF0400B24E00CF1200E2F
:102C20004FEA0E1A84F82098E3BB50F80A9052F845
:102C30003C6066F39C4940F80A904FEA0E1E50F83B
:102C40000E906FF3DF7940F80E9017F83CA050F823
:102C50000E900CF1010C6AF39E79614540F80E90DC
:102C600084F820B812D015F83C9000EB0C04B9F1B0
:102C7000000FD3D0B9F1010F08BF00EB0C040CF129
:102C8000010C08BF84F820886145ECD11F2998BF4A
:102C9000002205D843180131202983F82028F9D1D2
:102CA000BDE8F08F52F83C600CF1200E4FEA0E1A8E
:102CB00026F0604940F80A90BFE70022431801312E
:102CC000202983F82028F9D1704700BF89082DE911
:102CD000F04129D0043A002502EB810E4FF00F0C91
:102CE00029466FF060460FE040F8276050F82780D3
:102CF00064F39C4840F8278045EA0C0572454FEA8A
:102D00000C1C01F101010AD052F8044FB442F5D273
:102D100001F58077002BE7D040F82740ECE7ED4342
:102D2000C0F82854BDE8F0814FF0FF35C0F82854B2
:102D3000BDE8F08138B5B0F8403843F02003A0F882
:102D40004038B0F840389A0605460CD541F2873431
:102D500001E0013C07D00121084602F079F8B5F8FE
:102D600040389B06F5D4B5F84008C0F3401080F019
:102D7000010038BD70B5D0F8445882B0002315F07A
:102D80000105044601930E4607D1104B01A99B692A
:102D900001209847B0B9019A00E00D4AD4F84408E0
:102DA000D4F84438D4F84418C3F3022303EB107367
:102DB000C1F3094101310333B2FBF1F20125B2FB4A
:102DC000F3F33360284602B070BD00BFA086000058
:102DD00000366E0100B500210B4600EB011201F137
:102DE000200C00EB0C1CC2F800329CF805E001310D
:102DF00063F3030E20298CF805E082F8063282F88E
:102E0000073282F8083282F8093282F80A3282F8F0
:102E10000B3282F80C3282F80D32A2F80E32DCD17D
:102E20005DF804FB014491F8200880F04000C0F3F5
:102E30008010704730B501F120044FEA041E50F8AD
:102E40000E50C5F3807C83F80DC01ABB50F80E20DD
:102E5000C2F38A4200EB04141A60627902F00F0296
:102E6000082A964628BF4FF0080E83F804E062B1A6
:102E70005A1D00EB0114002304EB030C01339CF8F2
:102E800006C202F801CB7345F6D10844402380F80E
:102E9000203830BD50F80E20DCE700BFF0B583BB12
:102EA00001F120073B011568C45865F39C44C450E8
:102EB00000EB071514796B7964F303036B717CB134
:102EC000531D6FF004051C44AD1A00EB011605EB11
:102ED000030C13F801EBB444A3428CF806E2F6D1DC
:102EE0003F01527BC359014462F39E73C3510023D7
:102EF00081F8203891F8203843F0800381F8203899
:102F0000F0BD136801F120073C0123F06043035139
:102F1000CEE700BF90F84D38DBB20B6013B1002351
:102F200080F84D38704700BF10B5B0F842380C46F5
:102F3000002282B04FF000019BB262F3C7016360D0
:102F40000192A171D9B2DB0707D580F8532890F818
:102F50005228A37962F3C703A371E3796FF30403E3
:102F6000E371CB0608D5022380F8533890F8522835
:102F7000E37962F30403E37190F85838A279A3F17E
:102F80000303B3FA83F35B0963F30002A27190F8C1
:102F90005838A3F10703B3FA83F35B09D2B263F3A2
:102FA0008202A27190F85838A3F10503B3FA83F3B3
:102FB0005B09D2B263F34102A27190F84E38637399
:102FC00090F84F38237390F85038DBB283F07F02CB
:102FD000236101A980F85028FFF7CCFE08B1019BBE
:102FE000A36002B010BD00BFB0F8423890F84D2881
:102FF000C3F3C0131AB1002380F84D38012390F8B1
:103000005028520603D0002380F850380123184678
:10301000704700BF20B14FF00223036000207047CB
:103020000120704790B18AB138B50A4B0446406818
:10303000984209D101290BD11578206A2946FFF75A
:10304000CBFB00B9257238BD072038BD0120704781
:10305000032038BD4E41435290B370B516468AB333
:10306000194B04464068984217D11F290D4625D8B0
:10307000206AFFF7D7FE012811D13379082B1DD81C
:10308000206A431993F82018CA090BD093F8201826
:10309000CA0707D44EF6632070BD072070BD4EF6F8
:1030A000642070BD2946002583F8205883F82058F5
:1030B000637A3246FFF7F2FE284670BD032070BDEA
:1030C00001207047012070BD4E41435288B138B590
:1030D0000D4681B10A4B42689A42044601D007204E
:1030E00038BD006AFFF720FF38B1237A2B7000202B
:1030F00038BD01207047012038BD4EF6602038BD34
:103100004E41435200283FD0F8B51546002A3DD025
:10311000294B42689A42044601D00720F8BD076A4D
:1031200038460E46FFF77EFE90BBBB1993F8202869
:10313000D00726D593F82038990722D4627A2B46F7
:1031400031463846FFF776FE236AB3F84228D206A6
:1031500002D5227D012A20D0B3F8420810F00100E8
:10316000DCD094F92530002B15DB5A0913480121D6
:10317000403203F01F0301FA03F340F8223000202D
:10318000F8BD4EF66020F8BD012070470120F8BD63
:103190004EF66520F8BD0020F8BD94F924100029F2
:1031A000DADB480901F01F018A40044D00F14001BB
:1031B00045F82120D0E700BF4E41435200E100E036
:1031C00038B5044690F92400256A10F1210F21D06A
:1031D00000280FDB430939492033012200F01F008A
:1031E00002FA00F041F82300BFF34F8FBFF36F8F57
:1031F00094F9240001F05CFE94F92430002B09DBE3
:103200005A092E4803F01F036032012101FA03F32B
:1032100040F8223094F9250010F1210F21D0002828
:103220000FDB430925492033012200F01F0002FA79
:1032300000F041F82300BFF34F8FBFF36F8F94F975
:10324000250001F035FE94F92530002B09DB5A09E1
:103250001A4803F01F036032012101FA03F340F81A
:10326000223094F9260010F1210F21D000280FDB25
:10327000430912492033012200F01F0002FA00F036
:1032800041F82300BFF34F8FBFF36F8F94F92600EF
:1032900001F00EFE94F92630002B09DB5A0907488D
:1032A00003F01F030121603201FA03F340F82230DA
:1032B000002385F84C38C5F82C3438BD00E100E017
:1032C000D0B10E4A4168914201D00720704710B535
:1032D000002482B0026844603023ADF80430ADF8B9
:1032E0000620FFF76DFF01A801F028FD01A801F0FD
:1032F00039FE204602B010BD012070474E414352B6
:103300002DE9F04F8DB00023064603A80C46059327
:10331000ADF80C3001F006FC06B3276AF7B1A369DB
:10332000E3B1E268202A13D8910711D1344B7168B8
:10333000994200F0D581920815D07B6803EB820298
:1033400001E09A420FD053F8041BB1F1005FF8D3AB
:103350004EF6622528460DB0BDE8F08F01252846BF
:103360000DB0BDE8F08F6368002BF7D01A68013A02
:10337000B2F5806FECD25A7919799142E8D99B79EC
:103380009342E5D8DFF87C90BDF80C209DF80DB095
:10339000ADF810200023CDE9063307A9D9F818307D
:1033A00001930120984705460028D3D19DF810A02D
:1033B0001AF0020F16D11AF0010A25D13B78012B21
:1033C00022D008AFD9F814308DF80BA039460DF192
:1033D0000B00984705460028BCD19DF80B30052B03
:1033E00017D0B5E7019B584606A99847054600281F
:1033F000B0D1DDE90632B3FBF2F3022BDBD0A7E755
:103400004E414352A0860000C64B079A9A429FD372
:1034100008AF00230893DFF82483FB60C7E901337A
:103420002368ADF8163030233946ADF8143005A8BE
:10343000D8F80C309847089F37620546002889D194
:1034400005A801F061FD0546002840F04B8105A864
:1034500001F0AEFCD4E9062387F84C582168C7F880
:103460002C54206A3160C6E90623237A7372E3681C
:10347000F360BDF80C30227DADF81C30DB073275EF
:10348000357200F1108103787375012BD4F804A014
:10349000376A00F00D8104213846FFF79DF9054693
:1034A000002840F01181B7F8403860F3CC23A7F82A
:1034B0004038B7F8403860F30003A7F84038B7F851
:1034C0004038727A62F34203A7F84038B7F84038C0
:1034D000327D62F3C303A7F84038B7F8403860F391
:1034E0000413A7F84038B7F8403843F0C003A7F8F2
:1034F0004038DAF80030D7F84428013B63F319422A
:10350000C7F84428D7F844389AF8042062F31F73A8
:10351000C7F84438D7F844389AF8052062F30A23EC
:10352000C7F844389AF80620D7F8443862F30D33C8
:10353000C7F84438727DD7F8443862F30003C7F8FF
:10354000443838460121FFF747F90546002840F086
:10355000BB80306A276A0190FFF73CFC019880230A
:1035600080F85038D4E90312237AFFF74BFB7A68CE
:103570000198237AE168FFF7A9FB376A29463846A4
:10358000FFF72AF90546002840F09E803846FFF7ED
:10359000D1FB002800F0A8803846FFF725FD002861
:1035A00040F0A280D8F81080079507AA294605A800
:1035B000376AC0479DF91C3086F8243013F1210F7B
:1035C0001CD0594A116894F82420002B4FEA0212AB
:1035D000D2B2C0F28C80554800EB030C8CF800236B
:1035E00051F8332016600122590903F01F0302FA33
:1035F00003F340F821303E2387F84C3807AA032113
:1036000005A8C0479DF91C3086F8253013F1210F1D
:1036100018D0454A116894F82520002B4FEA021271
:10362000D2B26DDB414800EB030C8CF8002351F85B
:10363000332016600122590903F01F0302FA03F335
:1036400040F8213007AA05A80421C0479DF91C3085
:1036500086F8263013F1210F16D094F8262032492F
:103660001201002B0968D2B253DB3048C41884F829
:10367000002351F8332016600122590903F01F037B
:1036800002FA03F340F82130736A294A23F07F439A
:1036900023F0FF0393421CBF4FF0FF33C7F82C34D5
:1036A000244B736056E601237375D4F804A0376A7F
:1036B000D9F81C3003209847B0F5C97F05463FF480
:1036C000EAAE00283FF4E7AE3046FFF779FD05A8E3
:1036D00001F034FB05A801F045FC0023736039E6D6
:1036E000082537E60A2535E64EF66225ECE712484E
:1036F00003F00F0C6044027651F833301E607AE715
:103700000D4803F00F0C6044027651F833301E6010
:1037100098E7094803F00F042044027651F833304B
:103720001E60B1E700366E010888000000E100E08D
:1037300000DFDF004E414352FCEC00E00C8B000048
:1037400070B586B0EFF3058002F022FEEFF303833D
:10375000A3F1100040B2029301F0AAFBEFF3038241
:103760002E490292A2F1100309685BB251F833307E
:103770001C6804B3266AF6B1002501A93046CDE9DC
:103780000255CDE904550195FFF7C4FB9DF80430BF
:1037900013F0080216D113F0100517D003238DF88B
:1037A0000C301546A36933B1E26921680291CDE975
:1037B000045202A89847EFF3058006B0BDE87040B8
:1037C00002F0E4BD02238DF80C30EBE713F00402A5
:1037D00006D1990708D505238DF80C301546E1E789
:1037E00004238DF80C30DDE79A0606D4236AB3F87B
:1037F0004238C3F30015DB06D4D506238DF80C3010
:10380000022296F8533886F8532896F85258DBB2BD
:1038100005F01F0586F85338C4E700BF088800008C
:1038200010B584B0EFF3058002F0B2FDEFF303832F
:10383000A3F1100040B2009301F03AFBEFF30382D2
:1038400015490092A2F1100309685BB251F83330B8
:103850001B68CBB11A6ABAB19C69ACB192F8530833
:103860004FF0000C82F853C892F85218C0B282F898
:1038700053088DF804C01868DA69039201F01F013B
:10388000009002916846A047EFF3058004B0BDE8C0
:10389000104002F07BBD00BF0888000030B585B045
:1038A000EFF3058002F074FDEFF30383A3F1100042
:1038B00040B2009301F0FCFAEFF303822149009239
:1038C000A2F1100309685BB251F833301C688CB365
:1038D000236A7BB3A569DDB1012093F8531883F8FF
:1038E000530893F85228C9B202F01F0283F8531804
:1038F0001344002183F8201883F820188DF8040061
:10390000E36921680091039302926846A847236AFD
:10391000B3F842389B070DD594F92630002B09DB0C
:103920005A09094803F01F030121403201FA03F349
:1039300040F82230EFF3058005B0BDE8304002F0DA
:1039400025BD00BF0888000000E100E020B14FF075
:103950000223036000207047012070470620704753
:1039600078B10F4B826A9A420DD1C3694BB190F87E
:103970002420022A1A8808D042F4007200201A80FB
:1039800070470120704707207047C2F3C03012040F
:1039900004D41A8842F400421A8070470820704705
:1039A0004344415288B10B4B826A9A420FD1C3699A
:1039B0005BB190F82420022A1A8814BF6FF34922C1
:1039C0006FF3CF3200201A80704701207047072024
:1039D000704700BF4344415260B1084B826A9A422B
:1039E0000AD1C36933B11B8813F4004F0CBF002008
:1039F0000820704701207047072070474344415218
:103A000018B3CB1CDBB21E2B21D8002910B407DB66
:103A1000124B048853F8244001238B40234212D0D8
:103A20000F4B846A9C420AD1AAB1C3698BB1103191
:103A3000002033F8113013805DF8044B70470720E5
:103A40005DF8044B70470320F6E701207047032020
:103A500070470120F0E70220EEE700BF600200207F
:103A60004344415218B311B31B4B826A9A421CD192
:103A700091F90020D31CDBB2122B1ED8002A1EDBCA
:103A8000164B10B4048853F824400123934023427A
:103A90000FD0497806290CD9C369DBB11344002043
:103AA00083F8E0105DF8044B704707207047012051
:103AB000704703205DF8044B704703207047497836
:103AC0000629FAD9C369002BF1D01344002083F8EA
:103AD000E01070470120E5E74344415260020020B6
:103AE00000286AD070B50D4682B0002962D03A4BEA
:103AF000826A9A42044658D10379012B5FD0C66985
:103B0000002E57D0C26A002A52D04FF0FF334FF038
:103B1000010C184601330CFA03F11142F9D01C2BA9
:103B200056D01D2B4FD000F111034FEA430C6644D1
:103B30002E6020234FF0010E1946013B0EFA03F0D0
:103B40001042F9D01C2B41D01D2B3AD001F10F03AC
:103B50005B00A3EB0C035B1001336B6001232B7242
:103B600000221E4B218800922022ADF80610ADF8ED
:103B700004201B696A46022101A89847B0B923882E
:103B8000BDF802206A8104335B006B724FF0FF3393
:103B9000EB60E37A012B04D163691B68C3F30B0369
:103BA000EB6063882B8202B070BD072002B070BD4D
:103BB0004A60D3E7012002B070BD012070470320A6
:103BC000F4E71C23C5E74FF01C0CB0E71A23C0E74D
:103BD0004FF01A0CABE700BF434441520C8B00007E
:103BE000E8B110B584B0002304466846CDE900333F
:103BF000CDE9023300F080FF9DF80C3099070BD51A
:103C0000E3691A8812040CD41B8813F4007F14BFD4
:103C10001B20002004B010BD062004B010BD012000
:103C200070471B2004B010BD30B5B0F880306FF382
:103C30000003A0F880300388C3F34133012B038ACB
:103C400043F47C5383B00D46038203D1038A43F0CF
:103C50003F03038200242B8804802022448268468C
:103C6000ADF80230ADF8002001F068F8EB6ADB0037
:103C700007D52B6903B11C70222301A8019301F021
:103C80005DF803B030BD00BF00B5C369887FB3F8ED
:103C9000F22060F30302A3F8F220B3F8F220C87F09
:103CA00060F30712A3F8F220B3F8F22091F8200095
:103CB00060F30B22A3F8F220B3F8F02091F81EE095
:103CC00091F81FC091F8200042F00802A3F8F020FC
:103CD000B3F8F02042F08002A3F8F020B3F8F0200F
:103CE00042F40062A3F8F020BEF1FF0FB3F8F02019
:103CF00000F097806FF30002A3F8F020B3F8F020F3
:103D000042F00202A3F8F020B3F8F02042F00402DF
:103D1000A3F8F020BCF1FF0FB3F8F02000F097807B
:103D20006FF30412A3F8F020B3F8F02042F0200261
:103D3000A3F8F020B3F8F02042F04002A3F8F020FE
:103D4000FF28B3F8F02000F097806FF30822A3F863
:103D5000F020B3F8F02042F40072A3F8F020B3F89A
:103D6000F02042F48062A3F8F02091F81EC0C87FD2
:103D700091F820100CF17F02D2B23A2AB3F8F42065
:103D800033D8CCF3011C6CF30102A3F8F420B3F890
:103D9000F42042F00802A3F8F42000F17F02D2B22E
:103DA0003A2AB3F8F4202BD8C0F3011060F30512BF
:103DB000A3F8F420B3F8F42042F08002A3F8F42032
:103DC00001F17F02D2B23A2AB3F8F42023D8C1F32A
:103DD000011161F30922A3F8F420B3F8F42042F4AE
:103DE0000062A3F8F4205DF804FB6FF3C302A3F8AC
:103DF000F42000F17F02D2B23A2AB3F8F420D3D9EA
:103E00006FF3C712A3F8F42001F17F02D2B23A2A6D
:103E1000B3F8F420DBD96FF3CB22A3F8F4205DF8DC
:103E200004FB42F00102A3F8F020B3F8F0206FF396
:103E30004102A3F8F020B3F8F0206FF38202A3F858
:103E4000F020BCF1FF0FB3F8F0207FF469AF42F02F
:103E50001002A3F8F020B3F8F0206FF34512A3F896
:103E6000F020B3F8F0206FF38612A3F8F020FF28BB
:103E7000B3F8F0207FF469AF42F48072A3F8F02029
:103E8000B3F8F0206FF34922A3F8F020B3F8F02044
:103E90006FF38A22A3F8F02067E700BF002876D0EE
:103EA00010B53C4B826A9A4282B004466AD1C3691B
:103EB000002B6AD090F93000002310F1210FA3628B
:103EC00025D0984219DB420933490123203200F002
:103ED0001F0003FA00F041F82200BFF34F8FBFF339
:103EE0006F8F94F93000002807DB4209603200F040
:103EF0001F0C03FA0CF341F8223000F0D9FF274BD6
:103F000094F930101B6853F8313000221A6094F98C
:103F1000310010F1210F25D0002819DB42091E497C
:103F20000123203200F01F0003FA00F041F82200C4
:103F3000BFF34F8FBFF36F8F94F93100002807DB79
:103F40004209603200F01F0C03FA0CF341F82230F2
:103F500000F0AEFF114B94F931101B6853F831306B
:103F600000221A60E0692146FFF75EFE2288ADF864
:103F70000620202301A8ADF8043000F0F3FF002054
:103F800002B010BD072002B010BD0120F8E70120EB
:103F9000704700BF4344415200E100E00888000040
:103FA0001AB310B4044640B3CB1CDBB21E2B2AD884
:103FB000002907DB1C4B008853F8200001238B40AD
:103FC00003402CD0194BA06A984210D1E36943B347
:103FD0001031E08833F81130B0F5004F9BB218D0A3
:103FE00000205DF8044B13607047022070470023E7
:103FF00007205DF8044B13607047234601205DF8ED
:10400000044B13607047002303205DF8044B1360DA
:1040100070471B0400205DF8044B136070470320B9
:10402000DFE70120DDE700BF60020020434441528A
:104030002DE9F0418AB0002800F07C810C4600296F
:1040400000F078818B88C3F30E0323B1032630463A
:104050000AB0BDE8F081054606A8CDE90633CDE9F2
:1040600008338E7800F048FDA3794BB19DF82420E9
:10407000D70740F1648103F17C02D2B2012AE5D96D
:10408000E27912F0DF0FE1D1277A022FDED8A27891
:10409000022ADBD8E17809B1052BD7D023690BB10F
:1040A000022AD3D0012E00F05381B449A86A884275
:1040B00000F055812B6223882B80ADF802306369B4
:1040C0002A71AB61A388EB8085F82470237F85F883
:1040D0003230637F85F83330A37F85F83430E37F57
:1040E00085F8353094F82020A54F85F83620002338
:1040F0002022CDE90633CDE90833ADF80020FB6876
:1041000006A96846984706460028A0D1BDF81E308B
:104110009C49C3F382025200C3F3401308326B720E
:104120002A722088069BEB6151F820304BB9099B1D
:104130005E8841F820605B681B0C1B04334341F828
:1041400020300C2A00F015810E2A40F00A81E37815
:10415000032B02D0002B7FF479AF684600F0D4FE29
:10416000064600287FF473AF0690D7F8108006AAA1
:1041700002216846C0479DF9180085F83000236980
:10418000002B00F0378110F1210F00F06D817E4B84
:104190001A68A37A00284FEA0313DBB2C0F26F81DA
:1041A0007A4901EB000E4FEA501C8EF8003352F8AA
:1041B00030300CF1200C1D6000F01F02012303FAC7
:1041C00002F241F82C20BFF34F8FBFF36F8F95F9A8
:1041D0003000002807DB4209603200F01F0C03FAB0
:1041E0000CF341F8223000F063FE06AA0321684672
:1041F000C0479DF9180085F83100A378012B00F025
:10420000FE8010F1210F40F001814FF00008C5E958
:104210000488A5F80A8002A8CDE90288CDE90488BF
:1042200000F06AFC9DF808302222D90601920ED5D2
:10423000CDE90688CDE90888FB6806A901A898475A
:10424000D0B9069B2B610123AB729DF808301A0789
:104250000FD50023FA680127CDE90633CDE90833ED
:104260008DF8057006A901A8904728B9069BEF7242
:104270006B61BDF80A306B802946E869FFF7D4FC12
:104280002388ADF80A300027202302A8ADF80830B3
:10429000CDE90677CDE9087700F08AFDEB691F804C
:1042A0005F821A88A17861F34E321A801A8867F308
:1042B000C7121A80227A012A00F0DB803AB91988E5
:1042C00041F480711980198A62F30D211982DA890B
:1042D000E17861F34202DA81A288D989A2F500422D
:1042E000B2FA82F2520962F3CF31D981E279D989E7
:1042F000A2F12002B2FA82F2520962F34511D98189
:10430000A2791A7306A800F0F7FB9DF82430C3F3D6
:1043100040025B072A733BD41AB1217B002900F0CD
:10432000C0806B7A012B00F0DE80144B0022C5E9BF
:104330000A328CE6012630460AB0BDE8F081180644
:104340007FF584AEE27912F0DF0F7FF47FAE9BE65B
:10435000208940F2011188427FF478AEA5E6082654
:1043600075E6102A7FF4F9AEE378042B3FF4F5AE3E
:104370006CE6E378022B7FF6F0AE67E643444152E9
:104380000C8B0000600200200888000000E100E0C3
:10439000EB6995F8321093F8F92061F3420283F843
:1043A000F92093F8F92042F0100283F8F920012156
:1043B000962000F04DFDEB6995F8331093F8F92045
:1043C00061F3000283F8F92093F8F92095F8321090
:1043D0006FF3C30283F8F92029B193F8F92042F072
:1043E000080283F8F920012140F2DC5000F030FD92
:1043F0002A7B91E710F1210F3FF4F7AEC7E623695E
:10440000002B3FF4FEAE10F1210F2DD0384B1A686F
:10441000E37A00284FEA0313DBB239DB354901EBBD
:10442000000E4FEA501C8EF8003352F830300CF179
:10443000200C1D6000F01F02012303FA02F241F874
:104440002C20BFF34F8FBFF36F8F95F931000028F9
:1044500007DB4209603200F01F0C03FA0CF341F84D
:10446000223000F025FDD0E6684600F07BFD0B26EB
:10447000EDE51A8A092161F30D221A8227E71E4908
:1044800000F00F0C61440B7652F830301D60AAE644
:10449000194900F00F0C61440B7652F830301D6062
:1044A000DFE72846FFF79CFB074698B995F93000EF
:1044B00000F0FEFC95F93030002BFFF632AF5A09C0
:1044C0000C4803F01F036032012101FA03F340F8A6
:1044D000223026E7684600F045FDE8692946FFF7E7
:1044E000A3FB3E46B3E521462846FFF7CDFB1CE77C
:1044F0000888000000E100E0FCEC00E02DE9F0435A
:1045000087B0002800F014810E46002900F01081C9
:10451000B04B826A9A42044640F0FA80C769002F85
:1045200000F00681AC4B028853F822500B6845F02E
:104530004055002B00F0F680E94333EA050540F0D2
:10454000F1803A88C2F34132012A726800F0E580B6
:10455000002A40F0E780002302A8CDE90233CDE92C
:10456000043300F0C9FA9DF808108B0704D4726870
:1045700012F0405F40F0E180336813F040520BD0FE
:104580003888000600F1CE80490700F1508197F885
:104590007A20002A40F0C6803A7B520740F0D08053
:1045A000F168002940F0BE80327C002A40F083810F
:1045B000726898B2B88090B2B88288B23881180C0C
:1045C0001343090C120C13F0405FF880FA827981D2
:1045D00062D0002302A8CDE90233CDE90433019370
:1045E00000F08AFA7D4B9DF810009B6901A998475D
:1045F000019B7B4A934240F2A080002840F09D80BE
:1046000002F1864202F5492202F64442A2FB033837
:10461000039B4FEA984803FB08F8724BA3FB08384A
:104620004FEA9818A8F10703F82B00F28680336848
:10463000DA0000F1EC807268D00016D55FFA88F2DB
:1046400087F8DE20A27A012A00F024817A8A6FF3AB
:1046500008227A827A8A42F480627A82F268798ABF
:10466000C2F3007262F30001798213F0005300F08C
:10467000BD805FFA88F887F8DF807B8A43F4007397
:104680007B827B8A6FF3CB237B82F3687A8AC3F3C6
:10469000407363F341027A82337C727C1B0203F421
:1046A000E0631343A7F86630338948F2010293426E
:1046B00056D0A7F880302379022B27D0D4F81C904D
:1046C000B9F80030C3F34138B8F1010F00F0BC80F5
:1046D00094F9300010F1210F13D000F0E9FB94F9A8
:1046E0003020002A0DDB53099B0003F1604303F5E2
:1046F0006143012102F01F0201FA02F2C3F8802196
:104700001A60328948F201039A4223D033680AE0E2
:104710000725284607B0BDE8F0831AB119431142B6
:104720003FF419AF03252846E36207B0BDE8F083E4
:104730000125284607B0BDE8F08333680325F2E77A
:104740007268F1681A4331EA0202EBD100297FF462
:104750002BAFE7E748F201023368A7F88020E2E7D1
:104760002379022BF6D0D4F81C80B8F80030C3F3BC
:104770004133012BACD1B8F8102042F03F02A8F829
:10478000102094F9310010F1210F1CD0002818DB03
:104790004109DFF854C000F01F02203103FA02F291
:1047A0004CF82120BFF34F8FBFF36F8F94F9310086
:1047B000002806DB4209603200F01F018B404CF8F4
:1047C000223000F075FBB8F800306FF38613A8F8BC
:1047D00000307DE74344415260020020A086000083
:1047E0003F420F00D34D621000E100E0726892007A
:1047F0007FF552AF5FFA88F887F8DF807A8A63F333
:1048000049227A827B8A43F400637B823DE75FFA28
:1048100088F287F8DE20A27A012A3BD07A8A42F415
:1048200080727A827A8A6FF38A227A8216E7B2F1EC
:10483000405F3FF477AF33F070427FF473AF22797B
:10484000002A3FF4A9AE6DE794F9310010F1210F71
:1048500012D000F02DFB94F93130002B0CDB5A09FB
:10486000920002F1604202F5614203F01F0308FA70
:1048700003F3C2F880311360B9F8003043F040030D
:10488000A9F80030B9F810300A2262F30503A9F83C
:1048900010301DE700222D4BCDE90222CDE9042284
:1048A0002222DB68019202A901A89847002836D08D
:1048B0003368054637E7002302A8CDE90233CDE986
:1048C000043300F019F99DF80830D8077FF535AFAB
:1048D000317C07293FF631AF737C032B7FF62DAF78
:1048E000B7F800C0D6E90032CCF3413CBCF1010F6F
:1048F00001EA030001EA020E22D081427FF412AFE6
:104900003988090608D4BEF1000F03D03189002987
:104910007FF408AFF1684CE60028F4D002E701A864
:1049200000F046FA22693368117841F08001117075
:10493000117841F010011170D9007FF587AE6DE755
:104940008142DDD07145DBD0ECE600BF0C8B00006E
:10495000034668B1074AB2F80011C1F300011970AB
:1049600092F800316FF30003002082F800317047A5
:104970000120704700C00140104991F8043143F014
:10498000010381F80431B1F804318446D8070AD50F
:104990004FF0FF3300E07BB1B1F80421D20703F1FF
:1049A000FF33F8D443B1054A92F800316CF30003A9
:1049B000002082F8003170471420704700C0014089
:1049C00070B51F4D82B02B6898470120FFF7D4FFC8
:1049D000AE6800210320B0474FF0824240F203331B
:1049E000EC690192ADF800300320A047B0F5C97F13
:1049F000FAD169460520B04728B140F29113984298
:104A000001D000BEEC690520A047B0F5C97FFAD1FE
:104A1000002301222C698DF806308DF800308DF8C6
:104A200001208DF802308DF803308DF805208DF8C7
:104A3000042069460520A04700B100BE02B070BD49
:104A4000A086000000B5064B83B000229B6901924E
:104A500001A906209847019803B05DF804FB00BF48
:104A6000A086000003788268DBB92149406888424B
:104A70001CD98A4232D81F4A92F8A03013F003039F
:104A80002CD14AF20151A2F8FE1392F831104FF4E2
:104A9000254C41F0010182F831101846A2F8FEC3FE
:104AA0007047012B02D1124B9A4201D90020704766
:104AB000104A92F8A03013F00303F7D14AF20151E3
:104AC000A2F8FE1392F831104FF4254C63F3000165
:104AD00082F831101846A2F8FEC37047054B93F8D0
:104AE000313013F0010F14BF00200520704700BFC4
:104AF0000048E80100E001400278037B22F01F0239
:104B000042F00C0223F007034FF2BE1C41F2883141
:104B100043F0010302700222C0E90112A0F802C0B2
:104B200003737047037823F00303002243F002036A
:104B300042700370704700BF037823F0030343F013
:104B400002030370704700BF014B0360704700BF52
:104B50008487000002483022002102F02FBA00BFF3
:104B600068020020024B43F820100020704700BF6D
:104B70006802002008B56F4BB3F84031D80700F148
:104B8000CB806C4BB3F84031990700F1B880694B8A
:104B9000B3F840315A0700F1A580664BB3F84031B5
:104BA0001B0700F19280634BB3F84031D8067FD4E5
:104BB000604BB3F840315906C3F380106CD45D4BA1
:104BC000B3F840311A065AD45A4BB3F84031DB05DA
:104BD00048D4584BB3F84031980536D4554BB3F808
:104BE0004031590524D4534BB3F840311A0512D43F
:104BF000504BB3F84031DB0400D408BD4E4BDB6AA8
:104C00000BB10B2098474B4AB2F8303143F4805334
:104C1000A2F8303108BD484B9B6A0BB10A20984777
:104C2000444AB2F8303143F40063A2F83031DFE790
:104C3000414B5B6A0BB1092098473E4AB2F83031CC
:104C400043F48063A2F83031CDE73B4B1B6A0BB1D4
:104C500008209847374AB2F8303143F40073A2F87D
:104C60003031BBE7344BDB690BB107209847314A41
:104C7000B2F8303143F48073A2F83031A9E72E4BFB
:104C80001B680BB1002098472A4AB2F8303143F034
:104C90008003A2F8303197E7274B5B6803B1984750
:104CA000244AB2F8303143F04003A2F8303186E7AD
:104CB000214B9B690BB1062098471E4AB2F8303150
:104CC00043F01003A2F8303172E71B4B5B690BB164
:104CD00005209847174AB2F8303143F00803A2F88C
:104CE000303160E7144B1B690BB104209847114A1F
:104CF000B2F8303143F00403A2F830314DE70E4BE7
:104D00009B680BB1022098470A4AB2F8303143F051
:104D10000203A2F830313AE7074BDB680BB10320FE
:104D20009847044AB2F8303143F00103A2F8303119
:104D300027E700BF00600040680200200278452A93
:104D400026D8194B9B5CFF2B20D013F0200F417805
:104D5000B0F802C003F01F0013D1144A9B0961444C
:104D6000401A52F8232001218140EFF310800123E3
:104D700083F3108813681943116080F310880020B2
:104D800070470121242A01FA00F103D00320704763
:104D900001207047054A9B09BCF1010F52F82320FE
:104DA00008BF4FF08041E0E7B0870000F8870000BF
:104DB0000278452A2DD8204B9B5CFF2B39D013F06D
:104DC000200F4178B0F802C000B503F01F0016D1E3
:104DD0000CEB0102801A01228240D2439B09174941
:104DE00051F82310EFF31080012383F310880B6830
:104DF0001A400A6080F3108800205DF804FB4FF031
:104E0000010E242A0EFA00F10DD02B2A03D0CA433A
:104E1000E4E701207047BCF1030FF8D901300EFA26
:104E200000F0C243DAE7BCF1010FF0D16FF080422D
:104E3000D4E70320704700BFB0870000F887000068
:104E4000704700BFA0F101000028FBD1704700BFF0
:104E500010B501FB00F4FFF7F5FD4FF47A72A4FBE7
:104E600002CE4FF0FF331149B1FBF0F063454FF034
:104E7000000171EB0E0E07D3BCFBF0F0800878B197
:104E8000BDE81040FFF7DEBF8000B4FBF0F4A4FBE8
:104E90000242A34271EB020203D320460028EFD165
:104EA00010BDBDE810401846FFF7CCBF00CA9A3BC2
:104EB000002808DB800000F1804000F5C640036850
:104EC0006FF31043036070470B4A0C4B10B49B1AEE
:104ED0000B4CDB08236063B10A4800219388C3F3BD
:104EE000090340F8043B236801318B4202F10802B8
:104EF000F4D85DF8044B7047000500003005000051
:104F00009802002000630040134B10B41C68FCB1F1
:104F1000124B00681A680023043A02E00133A342EE
:104F200016D052F8041F8842F8D10D4A12680121A8
:104F3000134402E0C3E8401F58B1D3E84F2FD2B268
:104F4000002AF7D0BFF32F8F08205DF8044B70477D
:104F500003205DF8044B70479C020020A002002053
:104F6000A40200200B4B10B41C6884B10A4B0068EB
:104F70001A680023043A02E00133A34207D052F832
:104F8000041F8842F8D1054A12680021D1545DF807
:104F9000044B70479C020020A0020020A4020020C5
:104FA000F0B5114D114C1249124A134B134E0E60BD
:104FB000641BA40815601C6084B105EB840EAC462C
:104FC00000275CF8040B2A46002352F8041B884291
:104FD00005D001339C42F8D1F445F2D1F0BDF4453F
:104FE000F754EED1FAE700BF30050000800600005C
:104FF000A4020020A00200209C020020A4010020A6
:10500000EFF31081012383F31088124B33F8102043
:1050100092B22AB133F81020013A92B223F810204C
:1050200033F810309BB293B90B4A10B4B2F8FE3388
:105030000A4C9BB234F8100043F4254323EA0003E2
:10504000A2F8FE3381F310885DF8044B704781F3BA
:1050500010887047A802002000E001400C88000082
:1050600030B4EFF31081012383F310880E4A32F835
:1050700010309BB26BB90D4C0D4DB4F8FE3335F8C2
:1050800010C09BB243EA0C0343F425439BB2A4F83F
:10509000FE3332F8103001339BB222F8103081F326
:1050A000108830BC704700BFA802002000E001401B
:1050B0000C880000024B00221A805A809A807047A8
:1050C000A80200200B4A08B50346106840B103331C
:1050D000094923F0030303448B4204D8136008BD3D
:1050E00006481060F3E701F055FF0C2303604FF012
:1050F000FF3008BDB0020020181A0020180A002056
:1051000000BE704708B500F005F800F015FAFEE79C
:10511000704700BFF0B5534A5349D2F88830534D19
:1051200043F47003012483B0C2F88830002081F872
:105130009040FFF7EDFFFFF70DFD4D4B1B689847C3
:105140000024FFF7B7FFFFF73BFC4A4B8DF8074001
:105150009DF807205968484A484864F3DF71596050
:105160001168C1F300018DF807101168C1F3000147
:105170008DF8071012684249C2F300028DF807202B
:105180005A68096842F000425A602C8088473D4ABC
:105190003D48121A02D0214601F010FF3B4A3C481C
:1051A000121A02D03B4901F0FBFE3B4B3B493C4805
:1051B0003C4A00244FF425459C801D809860DA60AD
:1051C000B1F8202192B2012542F48052A1F82021A9
:1051D0009D80FFF737FC344B024628461A60334D5A
:1051E000FFF796FF324B5B1BA3424FEAA30605DD98
:1051F00055F8043B01349847A642F9DCFFF7D0FE8E
:10520000FFF762FE2B4B2C4C1B682C482C4D98470B
:10521000D4E90001D4E90023584001F0D7FED4E9D5
:1052200000232849561845EB0307C4E90067D4E971
:10523000006786F01E4287F07D4382F4120283F4F9
:105240002D0382F4384283F4A44382F0370283F0C2
:105250002B030020C4E9002303B0BDE8F040FFF7B2
:10526000EFBD00BF00ED00E000C07E40580200200E
:105270000C8B00000070044000080440F48800001B
:1052800048860000140A00203C020020F80100209B
:1052900000000020A8900000000D004000600040C9
:1052A000181A002017220020B40200209C010020C0
:1052B000A001002084860000300200201488000035
:1052C000E34FE6F41654E7A108B500F003F9BDE892
:1052D000084000F0F5B900BF30B51148036889B047
:1052E00001241919B4250F4B069502224FF40065CD
:1052F000CDE90222CDE90035CDE904440A4A016036
:1053000000230A490A4800F03FFF08B909B030BD40
:105310000748002109B0BDE8304000F0AFB800BF39
:105320002006002018220020C9520000208800001A
:10533000B802002008B500F0CDF8BDE80840002014
:1053400000F018BA30B5104C104D226889B0012316
:10535000D018B4214FF48062CDE90433CDE9023393
:105360000691019220600A4A0A490B4800950023E1
:1053700000F00AFF08B909B030BD0748002109B0A4
:10538000BDE8304000F07AB820060020182A00203E
:105390003553000074880000A4030020704700BF4C
:1053A00008B500F097F8BDE8084000F053BA00BF18
:1053B00030B5104C104D226889B00123D018B421AB
:1053C0004FF40062CDE90433CDE902330691019236
:1053D00020600A4A0A490B480095002300F0D4FED9
:1053E00008B909B030BD0748002109B0BDE8304018
:1053F00000F044B820060020182E0020A153000021
:10540000C48800008C040020FFF7C8BF08B500F076
:1054100061F8BDE80840002000F04EBB30B51148EF
:10542000036889B001241919B4250F4B069502228F
:105430004FF48065CDE90222CDE90035CDE9044481
:105440000A4A016000230A490A4800F09DFE08B993
:1054500009B030BD0748002109B0BDE8304000F078
:105460000DB800BF20060020183600200D540000A3
:10547000D48800004C050020704700BF00BE704774
:10548000104A114970B50025104E157004461C23B2
:105490000F483560012200F005FE68B900F05AF8A7
:1054A000FFF750FFFFF7BAFFFFF716FFFFF780FF88
:1054B0002046FFF7E1FF70BD05482946FFF7DEFFF4
:1054C000ECE700BF00060020E08800002006002076
:1054D0000406002038B515484FF0FF3100F032FEC9
:1054E000F0B9134B1A7802B138BD124C01221A7070
:1054F000FFF78AFF2368013B2360002BF4D00B4D9C
:1055000004E02368013B2360002BEDD0284600F027
:105510002FFE0028F5D000212846FFF7AFFFF0E767
:1055200002480021FFF7AAFFDBE700BF04060020C6
:10553000000600202006002008B572B600F002FF29
:10554000002008BD08B5FFF7C5FFBDE8084000F022
:10555000A7BB00BF30B51148036889B001241919F1
:10556000B4250F4B069505224FF48065CDE9022244
:10557000CDE90035CDE904440A4A016000230A4917
:105580000A4800F001FE08B909B030BD0748002103
:1055900009B0BDE83040FFF771BF00BF2006002012
:1055A000183A002045550000148A00002406002007
:1055B000F8B5174F174CFE68D7E9005133682846F5
:1055C0009847B9687368206028469847B368206098
:1055D000284698472060012001F068F83369284682
:1055E0009847206021680029F5D173690A4A284646
:1055F00098470A4A7369012128469847F368284664
:105600009847B26A03462846236090472060F8BD59
:105610002C880000D8060020DC060020DE060020D2
:10562000013810B5062846D8DFE800F0172A3336CF
:105630003F420400214B01215C6840F20B10236AB9
:1056400098470121236A4FF486709847236A012105
:10565000BDE8104040F20D101847184B01215C685E
:1056600040F20B10236A98470021236A4FF486709A
:105670009847236A0021BDE8104040F20D101847FA
:105680000E4B00215C6840F20B10236A9847012101
:10569000EBE70A4B0121F5E7084B00215C6840F27B
:1056A0000B10236A98470021CCE7044B0121F5E752
:1056B000024B0021C0E7014B0021D0E7BC8800006D
:1056C00070B50E4D0026F0B20D4CFFF7A9FF01207A
:1056D00000F0ECFFFFF76CFF0FCC01362488286048
:1056E000082E05F1120545F80E1C45F80A2C45F860
:1056F000063C25F8024CE6D1E3E700BFF0060020A7
:10570000DC06002038B5144B144A5B68144C1B6A45
:105710000025012140F2074015709847114B986809
:105720002946224645681868A8470F4A0F4D034688
:105730001920136000F0BAFFD4F80500D4F809105E
:105740000B4C2B4603C323682878984202D000F004
:10575000B3F92B78236038BDBC88000028010020F5
:10576000A00700208088000098070020B0070020D4
:105770009C0700202DE9F0471F4BDFF890A01F4C3D
:105780001F4DDFF88C804FF000090222CAF8049008
:10579000C3F804908AF804201A710821194A8AF87B
:1057A000061040F2DF711960CAE90299C3E9029953
:1057B000CAF80010D2E9006197688AF805003B68D2
:1057C000304698477B6920600F49304698472060F3
:1057D0000F24BB680121524630469847297898F833
:1057E000003009B185F800900BB1FFF78BFF013C49
:1057F000EFD1BDE8F08700BFA00700209807002088
:10580000C80700208088000080070020B80700201B
:1058100028010020036883B90A4A01791368012925
:1058200003F10103136009D019B9074B55221A700F
:105830007047064A1368013313607047044B5522C2
:105840001A7070479407002028010020CC07002020
:10585000C807002010B51D4C07E0FFF78BFF0120A3
:10586000FFF788FF012000F021FFB4F88030B3F586
:10587000C86F4FF00100F0D2238FB3F5C86F0FD27D
:105880006388B3F5C86F19D2A38AB3F5C86F4FF018
:1058900000000CD2FFF76EFF0020FFF76BFFE1E77F
:1058A0000220FFF767FF0220FFF764FFDAE704201A
:1058B000FFF760FF0420FFF75DFFD3E70320FFF74A
:1058C00059FF0320FFF756FFCCE700BFF00600208A
:1058D000124B10B55C680121236A40F20110984711
:1058E000236A01214FF48070984701210A20FFF7B5
:1058F000AFFA236A002140F20110984701210A20E3
:10590000FFF7A6FA236A00214FF480709847BDE89C
:10591000104001210A20FFF79BBA00BFBC8800009D
:1059200010B501210A20FFF793FA0B4B5C680021A8
:10593000236A40F201109847236A01214FF48070D6
:10594000984701210A20FFF783FA236A0121BDE865
:10595000104040F201101847BC880000104B10B5F1
:105960005C680021236A40F20110984701210A2057
:10597000FFF76EFA236A01214FF4807098470121E6
:105980000A20FFF765FA236A00214FF480709847D8
:10599000236A0121BDE8104040F20110184700BF02
:1059A000BC880000244A2DE9F041244F244E55685C
:1059B00038808023338008242B6A00214FF48070C4
:1059C00098473A8833889BB2134018BF2B6A4FF030
:1059D000010140F2011002BF194640F201102B6A8A
:1059E000984733880121C3F34E030A203380FFF721
:1059F0002FFA2B6A01214FF480709847013C012156
:105A00000A20FFF725FA14F0FF04D5D12B6A2146AE
:105A10004FF4807098472B6A214640F20110984756
:105A200001210A20FFF714FA2B6A0121BDE8F04199
:105A30004FF48070184700BFBC880000D0070020DA
:105A4000D207002001EB801070B500F13F01144631
:105A5000CDB2FFF73DFF7C20FFF7A4FFFFF77EFFED
:105A60000020FFF79FFFFFF779FF2846FFF79AFF17
:105A7000FFF774FFFFF754FF022000F017FE04F158
:105A8000100614F8015BFFF723FF7C20FFF78AFF65
:105A9000FFF764FF4020FFF785FFFFF75FFF284611
:105AA000FFF780FFFFF75AFFFFF73AFF022000F0F1
:105AB000FDFDA642E5D170BD10B50446052000F0FD
:105AC000F5FDFFF705FF7C20FFF76CFFFFF746FFB2
:105AD0000020FFF767FFFFF741FF3020FFF762FF6D
:105AE000FFF73CFFFFF71CFF052000F0DFFDFFF78D
:105AF000EFFE7C20FFF756FFFFF730FF0020FFF797
:105B000051FFFFF72BFF3020FFF74CFFFFF726FF79
:105B1000FFF706FF052000F0C9FDFFF7D9FE7C2046
:105B2000FFF740FFFFF71AFF0020FFF73BFFFFF7EB
:105B300015FF3020FFF736FFFFF710FFFFF7F0FEED
:105B4000052000F0B3FDFFF7C3FE7C20FFF72AFF1E
:105B5000FFF704FF0020FFF725FFFFF7FFFE2020DF
:105B6000FFF720FFFFF7FAFEFFF7DAFE052000F04F
:105B70009DFDFFF7ADFE7C20FFF714FFFFF7EEFE63
:105B80000020FFF70FFFFFF7E9FE2820FFF70AFFCD
:105B9000FFF7E4FEFFF7C4FE052000F087FDFFF7E6
:105BA00097FE7C20FFF7FEFEFFF7D8FE0020FFF7F0
:105BB000F9FEFFF7D3FE0C20FFF7F4FEFFF7CEFE51
:105BC000FFF7AEFE052000F071FDFFF781FE7C209F
:105BD000FFF7E8FEFFF7C2FE0020FFF7E3FEFFF746
:105BE000BDFE0120FFF7DEFEFFF7B8FEFFF798FECF
:105BF0000A2000F05BFDFFF76BFE7C20FFF7D2FE72
:105C0000FFF7ACFE0020FFF7CDFEFFF7A7FE062052
:105C1000FFF7C8FEFFF7A2FEFFF782FE052000F0A7
:105C200045FD012C0FD00121022C08461DD0032C6C
:105C300023D0042C11D0154AFFF704FFBDE8104013
:105C4000192000F033BD20462146114AFFF7FAFE25
:105C5000BDE81040192000F029BD0E4AFFF7F2FE02
:105C6000BDE81040192000F021BD0B4AFFF7EAFE05
:105C7000BDE81040192000F019BD084AFFF7E2FE08
:105C8000BDE81040192000F011BD00BF708A00006F
:105C9000208A00005C8A0000348A0000488A0000E4
:105CA00008B5094B5C68236A01214FF4816098476D
:105CB000192000F0FBFC236A00214FF48160984713
:105CC000192000F0F3FCEEE7BC880000034678B131
:105CD0000849094A0968914208D1084AD2F89C212A
:105CE000516802EB810200201A6070471220704751
:105CF0000120704738020020494D460000B07F4027
:105D000020B14FF00223036000207047012070474C
:105D1000B0B10C4A0C4B12689A420FD10B4BD3F81E
:105D20009C315A6800F1100103EB820353F8042FF1
:105D300040F8042B8842F9D10020704712207047A8
:105D40000120704738020020494D460000B07F40D6
:105D500098B392B3F0B51D4C1D4B24689C4201D002
:105D60001220F0BD1B4B1C684CB31B4B05781B6805
:105D70004FF0000C05E00CF1010CA44503F1080301
:105D80001DD093F806E0AE45F5D15E79B0F802E09B
:105D9000BEEB960FEFD1DE7990F801E006F0070731
:105DA0007745E8D1B1EBD60FE5D182F800C09B88EA
:105DB000C3F3090300205380F0BD01207047DF21A9
:105DC000FF23117053800B20F0BD00BF380200206C
:105DD000494D460098020020088800001E4B1A68B2
:105DE0009AB103F57F71002001E053F8042F8B4234
:105DF0001044FAD148B9194BD3F89C311A0CB2F5BA
:105E0000807F05D000BE00BEFCE700BE00BEFCE700
:105E10001A68013A033208D8114A93F8241092F80C
:105E200000C08C4504D000BEFDE700BE00BEFCE70C
:105E3000517893F825C06145F5D1917893F826C043
